{
  "_format": "hh-sol-artifact-1",
  "contractName": "ElectionModule",
  "sourceName": "contracts/modules/core/ElectionModule.sol",
  "abi": [
    {
      "inputs": [
        {
          "internalType": "bytes32",
          "name": "expected",
          "type": "bytes32"
        },
        {
          "internalType": "bytes32",
          "name": "actual",
          "type": "bytes32"
        }
      ],
      "name": "MismatchAssociatedSystemKind",
      "type": "error"
    },
    {
      "inputs": [
        {
          "internalType": "bytes32",
          "name": "id",
          "type": "bytes32"
        }
      ],
      "name": "MissingAssociatedSystem",
      "type": "error"
    },
    {
      "inputs": [
        {
          "internalType": "address",
          "name": "addr",
          "type": "address"
        }
      ],
      "name": "Unauthorized",
      "type": "error"
    },
    {
      "anonymous": false,
      "inputs": [
        {
          "indexed": true,
          "internalType": "bytes32",
          "name": "kind",
          "type": "bytes32"
        },
        {
          "indexed": true,
          "internalType": "bytes32",
          "name": "id",
          "type": "bytes32"
        },
        {
          "indexed": false,
          "internalType": "address",
          "name": "proxy",
          "type": "address"
        },
        {
          "indexed": false,
          "internalType": "address",
          "name": "impl",
          "type": "address"
        }
      ],
      "name": "AssociatedSystemSet",
      "type": "event"
    },
    {
      "inputs": [
        {
          "internalType": "bytes32",
          "name": "id",
          "type": "bytes32"
        }
      ],
      "name": "getAssociatedSystem",
      "outputs": [
        {
          "internalType": "address",
          "name": "addr",
          "type": "address"
        },
        {
          "internalType": "bytes32",
          "name": "kind",
          "type": "bytes32"
        }
      ],
      "stateMutability": "view",
      "type": "function"
    },
    {
      "inputs": [
        {
          "internalType": "bytes32",
          "name": "id",
          "type": "bytes32"
        },
        {
          "internalType": "string",
          "name": "name",
          "type": "string"
        },
        {
          "internalType": "string",
          "name": "symbol",
          "type": "string"
        },
        {
          "internalType": "string",
          "name": "uri",
          "type": "string"
        },
        {
          "internalType": "address",
          "name": "impl",
          "type": "address"
        }
      ],
      "name": "initOrUpgradeNft",
      "outputs": [],
      "stateMutability": "nonpayable",
      "type": "function"
    },
    {
      "inputs": [
        {
          "internalType": "bytes32",
          "name": "id",
          "type": "bytes32"
        },
        {
          "internalType": "string",
          "name": "name",
          "type": "string"
        },
        {
          "internalType": "string",
          "name": "symbol",
          "type": "string"
        },
        {
          "internalType": "uint8",
          "name": "decimals",
          "type": "uint8"
        },
        {
          "internalType": "address",
          "name": "impl",
          "type": "address"
        }
      ],
      "name": "initOrUpgradeToken",
      "outputs": [],
      "stateMutability": "nonpayable",
      "type": "function"
    },
    {
      "inputs": [
        {
          "internalType": "bytes32",
          "name": "id",
          "type": "bytes32"
        },
        {
          "internalType": "address",
          "name": "endpoint",
          "type": "address"
        }
      ],
      "name": "registerUnmanagedSystem",
      "outputs": [],
      "stateMutability": "nonpayable",
      "type": "function"
    },
    {
      "inputs": [
        {
          "internalType": "string",
          "name": "parameter",
          "type": "string"
        },
        {
          "internalType": "string",
          "name": "reason",
          "type": "string"
        }
      ],
      "name": "InvalidParameter",
      "type": "error"
    },
    {
      "inputs": [],
      "name": "OverflowUint256ToUint64",
      "type": "error"
    },
    {
      "inputs": [],
      "name": "ValueAlreadyInSet",
      "type": "error"
    },
    {
      "anonymous": false,
      "inputs": [
        {
          "indexed": false,
          "internalType": "uint64",
          "name": "newChainId",
          "type": "uint64"
        }
      ],
      "name": "NewSupportedCrossChainNetwork",
      "type": "event"
    },
    {
      "inputs": [
        {
          "internalType": "address",
          "name": "ccipRouter",
          "type": "address"
        }
      ],
      "name": "configureChainlinkCrossChain",
      "outputs": [],
      "stateMutability": "nonpayable",
      "type": "function"
    },
    {
      "inputs": [
        {
          "internalType": "uint64[]",
          "name": "supportedNetworks",
          "type": "uint64[]"
        },
        {
          "internalType": "uint64[]",
          "name": "ccipSelectors",
          "type": "uint64[]"
        }
      ],
      "name": "setSupportedCrossChainNetworks",
      "outputs": [
        {
          "internalType": "uint256",
          "name": "numRegistered",
          "type": "uint256"
        }
      ],
      "stateMutability": "nonpayable",
      "type": "function"
    },
    {
      "inputs": [
        {
          "internalType": "address",
          "name": "candidate",
          "type": "address"
        },
        {
          "internalType": "uint256",
          "name": "epochIndex",
          "type": "uint256"
        }
      ],
      "name": "getCandidateVotesInEpoch",
      "outputs": [
        {
          "internalType": "uint256",
          "name": "",
          "type": "uint256"
        }
      ],
      "stateMutability": "view",
      "type": "function"
    },
    {
      "inputs": [
        {
          "internalType": "uint256",
          "name": "epochIndex",
          "type": "uint256"
        }
      ],
      "name": "getElectionWinnersInEpoch",
      "outputs": [
        {
          "internalType": "address[]",
          "name": "",
          "type": "address[]"
        }
      ],
      "stateMutability": "view",
      "type": "function"
    },
    {
      "inputs": [
        {
          "internalType": "uint256",
          "name": "epochIndex",
          "type": "uint256"
        }
      ],
      "name": "getEpochEndDateForIndex",
      "outputs": [
        {
          "internalType": "uint64",
          "name": "",
          "type": "uint64"
        }
      ],
      "stateMutability": "view",
      "type": "function"
    },
    {
      "inputs": [
        {
          "internalType": "uint256",
          "name": "epochIndex",
          "type": "uint256"
        }
      ],
      "name": "getEpochStartDateForIndex",
      "outputs": [
        {
          "internalType": "uint64",
          "name": "",
          "type": "uint64"
        }
      ],
      "stateMutability": "view",
      "type": "function"
    },
    {
      "inputs": [
        {
          "internalType": "uint256",
          "name": "epochIndex",
          "type": "uint256"
        }
      ],
      "name": "getNominationPeriodStartDateForIndex",
      "outputs": [
        {
          "internalType": "uint64",
          "name": "",
          "type": "uint64"
        }
      ],
      "stateMutability": "view",
      "type": "function"
    },
    {
      "inputs": [
        {
          "internalType": "uint256",
          "name": "epochIndex",
          "type": "uint256"
        }
      ],
      "name": "getNomineesAtEpoch",
      "outputs": [
        {
          "internalType": "address[]",
          "name": "",
          "type": "address[]"
        }
      ],
      "stateMutability": "view",
      "type": "function"
    },
    {
      "inputs": [
        {
          "internalType": "uint256",
          "name": "epochIndex",
          "type": "uint256"
        }
      ],
      "name": "getVotingPeriodStartDateForIndex",
      "outputs": [
        {
          "internalType": "uint64",
          "name": "",
          "type": "uint64"
        }
      ],
      "stateMutability": "view",
      "type": "function"
    },
    {
      "inputs": [
        {
          "internalType": "address",
          "name": "user",
          "type": "address"
        },
        {
          "internalType": "uint256",
          "name": "chainId",
          "type": "uint256"
        },
        {
          "internalType": "uint256",
          "name": "epochIndex",
          "type": "uint256"
        }
      ],
      "name": "hasVotedInEpoch",
      "outputs": [
        {
          "internalType": "bool",
          "name": "",
          "type": "bool"
        }
      ],
      "stateMutability": "view",
      "type": "function"
    },
    {
      "inputs": [
        {
          "internalType": "address",
          "name": "candidate",
          "type": "address"
        },
        {
          "internalType": "uint256",
          "name": "epochIndex",
          "type": "uint256"
        }
      ],
      "name": "wasNominated",
      "outputs": [
        {
          "internalType": "bool",
          "name": "",
          "type": "bool"
        }
      ],
      "stateMutability": "view",
      "type": "function"
    },
    {
      "inputs": [],
      "name": "AlreadyACouncilMember",
      "type": "error"
    },
    {
      "inputs": [],
      "name": "AlreadyNominated",
      "type": "error"
    },
    {
      "inputs": [],
      "name": "ChangesCurrentPeriod",
      "type": "error"
    },
    {
      "inputs": [
        {
          "internalType": "address",
          "name": "duplicatedCandidate",
          "type": "address"
        }
      ],
      "name": "DuplicateCandidates",
      "type": "error"
    },
    {
      "inputs": [],
      "name": "ElectionAlreadyEvaluated",
      "type": "error"
    },
    {
      "inputs": [],
      "name": "ElectionNotEvaluated",
      "type": "error"
    },
    {
      "inputs": [],
      "name": "EmptyArray",
      "type": "error"
    },
    {
      "inputs": [
        {
          "internalType": "uint256",
          "name": "requiredAmount",
          "type": "uint256"
        },
        {
          "internalType": "uint256",
          "name": "availableAmount",
          "type": "uint256"
        }
      ],
      "name": "InsufficientCcipFee",
      "type": "error"
    },
    {
      "inputs": [],
      "name": "InvalidBallot",
      "type": "error"
    },
    {
      "inputs": [],
      "name": "InvalidElectionSettings",
      "type": "error"
    },
    {
      "inputs": [
        {
          "internalType": "uint256",
          "name": "code",
          "type": "uint256"
        },
        {
          "internalType": "uint64",
          "name": "v1",
          "type": "uint64"
        },
        {
          "internalType": "uint64",
          "name": "v2",
          "type": "uint64"
        }
      ],
      "name": "InvalidEpochConfiguration",
      "type": "error"
    },
    {
      "inputs": [],
      "name": "NoCandidates",
      "type": "error"
    },
    {
      "inputs": [
        {
          "internalType": "address",
          "name": "sender",
          "type": "address"
        },
        {
          "internalType": "uint256",
          "name": "currentEpoch",
          "type": "uint256"
        }
      ],
      "name": "NoVotingPower",
      "type": "error"
    },
    {
      "inputs": [],
      "name": "NotACouncilMember",
      "type": "error"
    },
    {
      "inputs": [],
      "name": "NotCallableInCurrentPeriod",
      "type": "error"
    },
    {
      "inputs": [],
      "name": "NotImplemented",
      "type": "error"
    },
    {
      "inputs": [],
      "name": "NotNominated",
      "type": "error"
    },
    {
      "inputs": [],
      "name": "PositionOutOfBounds",
      "type": "error"
    },
    {
      "inputs": [],
      "name": "TooManyMembers",
      "type": "error"
    },
    {
      "inputs": [],
      "name": "ValueNotInSet",
      "type": "error"
    },
    {
      "anonymous": false,
      "inputs": [
        {
          "indexed": true,
          "internalType": "address",
          "name": "candidate",
          "type": "address"
        },
        {
          "indexed": true,
          "internalType": "uint256",
          "name": "epochId",
          "type": "uint256"
        }
      ],
      "name": "CandidateNominated",
      "type": "event"
    },
    {
      "anonymous": false,
      "inputs": [
        {
          "indexed": true,
          "internalType": "address",
          "name": "member",
          "type": "address"
        },
        {
          "indexed": true,
          "internalType": "uint256",
          "name": "epochIndex",
          "type": "uint256"
        }
      ],
      "name": "CouncilMemberAdded",
      "type": "event"
    },
    {
      "anonymous": false,
      "inputs": [
        {
          "indexed": true,
          "internalType": "address",
          "name": "member",
          "type": "address"
        },
        {
          "indexed": true,
          "internalType": "uint256",
          "name": "epochIndex",
          "type": "uint256"
        }
      ],
      "name": "CouncilMemberRemoved",
      "type": "event"
    },
    {
      "anonymous": false,
      "inputs": [
        {
          "indexed": false,
          "internalType": "address[]",
          "name": "dismissedMembers",
          "type": "address[]"
        },
        {
          "indexed": false,
          "internalType": "uint256",
          "name": "epochId",
          "type": "uint256"
        }
      ],
      "name": "CouncilMembersDismissed",
      "type": "event"
    },
    {
      "anonymous": false,
      "inputs": [
        {
          "indexed": true,
          "internalType": "uint256",
          "name": "epochId",
          "type": "uint256"
        },
        {
          "indexed": false,
          "internalType": "uint256",
          "name": "numEvaluatedBallots",
          "type": "uint256"
        },
        {
          "indexed": false,
          "internalType": "uint256",
          "name": "totalBallots",
          "type": "uint256"
        }
      ],
      "name": "ElectionBatchEvaluated",
      "type": "event"
    },
    {
      "anonymous": false,
      "inputs": [
        {
          "indexed": true,
          "internalType": "uint256",
          "name": "epochId",
          "type": "uint256"
        },
        {
          "indexed": false,
          "internalType": "uint256",
          "name": "ballotCount",
          "type": "uint256"
        }
      ],
      "name": "ElectionEvaluated",
      "type": "event"
    },
    {
      "anonymous": false,
      "inputs": [],
      "name": "ElectionModuleInitialized",
      "type": "event"
    },
    {
      "anonymous": false,
      "inputs": [
        {
          "indexed": true,
          "internalType": "uint256",
          "name": "epochId",
          "type": "uint256"
        }
      ],
      "name": "EmergencyElectionStarted",
      "type": "event"
    },
    {
      "anonymous": false,
      "inputs": [
        {
          "indexed": true,
          "internalType": "uint64",
          "name": "epochId",
          "type": "uint64"
        },
        {
          "indexed": false,
          "internalType": "uint64",
          "name": "startDate",
          "type": "uint64"
        },
        {
          "indexed": false,
          "internalType": "uint64",
          "name": "endDate",
          "type": "uint64"
        }
      ],
      "name": "EpochScheduleUpdated",
      "type": "event"
    },
    {
      "anonymous": false,
      "inputs": [
        {
          "indexed": true,
          "internalType": "uint256",
          "name": "epochId",
          "type": "uint256"
        }
      ],
      "name": "EpochStarted",
      "type": "event"
    },
    {
      "anonymous": false,
      "inputs": [
        {
          "indexed": true,
          "internalType": "address",
          "name": "candidate",
          "type": "address"
        },
        {
          "indexed": true,
          "internalType": "uint256",
          "name": "epochId",
          "type": "uint256"
        }
      ],
      "name": "NominationWithdrawn",
      "type": "event"
    },
    {
      "anonymous": false,
      "inputs": [
        {
          "indexed": true,
          "internalType": "address",
          "name": "voter",
          "type": "address"
        },
        {
          "indexed": true,
          "internalType": "uint256",
          "name": "chainId",
          "type": "uint256"
        },
        {
          "indexed": true,
          "internalType": "uint256",
          "name": "epochId",
          "type": "uint256"
        },
        {
          "indexed": false,
          "internalType": "uint256",
          "name": "votingPower",
          "type": "uint256"
        },
        {
          "indexed": false,
          "internalType": "address[]",
          "name": "candidates",
          "type": "address[]"
        }
      ],
      "name": "VoteRecorded",
      "type": "event"
    },
    {
      "anonymous": false,
      "inputs": [
        {
          "indexed": true,
          "internalType": "address",
          "name": "voter",
          "type": "address"
        },
        {
          "indexed": true,
          "internalType": "uint256",
          "name": "chainId",
          "type": "uint256"
        },
        {
          "indexed": true,
          "internalType": "uint256",
          "name": "epochId",
          "type": "uint256"
        },
        {
          "indexed": false,
          "internalType": "address[]",
          "name": "candidates",
          "type": "address[]"
        }
      ],
      "name": "VoteWithdrawn",
      "type": "event"
    },
    {
      "inputs": [
        {
          "internalType": "uint256",
          "name": "epochIndex",
          "type": "uint256"
        },
        {
          "internalType": "address",
          "name": "voter",
          "type": "address"
        },
        {
          "internalType": "uint256",
          "name": "votingPower",
          "type": "uint256"
        },
        {
          "internalType": "uint256",
          "name": "chainId",
          "type": "uint256"
        },
        {
          "internalType": "address[]",
          "name": "candidates",
          "type": "address[]"
        },
        {
          "internalType": "uint256[]",
          "name": "amounts",
          "type": "uint256[]"
        }
      ],
      "name": "_recvCast",
      "outputs": [],
      "stateMutability": "nonpayable",
      "type": "function"
    },
    {
      "inputs": [
        {
          "internalType": "address[]",
          "name": "membersToDismiss",
          "type": "address[]"
        },
        {
          "internalType": "uint256",
          "name": "epochIndex",
          "type": "uint256"
        }
      ],
      "name": "_recvDismissMembers",
      "outputs": [],
      "stateMutability": "nonpayable",
      "type": "function"
    },
    {
      "inputs": [
        {
          "internalType": "uint256",
          "name": "epochIndex",
          "type": "uint256"
        },
        {
          "internalType": "uint64",
          "name": "epochStartDate",
          "type": "uint64"
        },
        {
          "internalType": "uint64",
          "name": "nominationPeriodStartDate",
          "type": "uint64"
        },
        {
          "internalType": "uint64",
          "name": "votingPeriodStartDate",
          "type": "uint64"
        },
        {
          "internalType": "uint64",
          "name": "epochEndDate",
          "type": "uint64"
        },
        {
          "internalType": "address[]",
          "name": "councilMembers",
          "type": "address[]"
        }
      ],
      "name": "_recvResolve",
      "outputs": [],
      "stateMutability": "nonpayable",
      "type": "function"
    },
    {
      "inputs": [
        {
          "internalType": "uint256",
          "name": "epochIndex",
          "type": "uint256"
        },
        {
          "internalType": "uint64",
          "name": "nominationPeriodStartDate",
          "type": "uint64"
        },
        {
          "internalType": "uint64",
          "name": "votingPeriodStartDate",
          "type": "uint64"
        },
        {
          "internalType": "uint64",
          "name": "epochEndDate",
          "type": "uint64"
        }
      ],
      "name": "_recvTweakEpochSchedule",
      "outputs": [],
      "stateMutability": "nonpayable",
      "type": "function"
    },
    {
      "inputs": [
        {
          "internalType": "uint256",
          "name": "epochIndex",
          "type": "uint256"
        },
        {
          "internalType": "address",
          "name": "voter",
          "type": "address"
        },
        {
          "internalType": "uint256",
          "name": "chainId",
          "type": "uint256"
        },
        {
          "internalType": "address[]",
          "name": "candidates",
          "type": "address[]"
        }
      ],
      "name": "_recvWithdrawVote",
      "outputs": [],
      "stateMutability": "nonpayable",
      "type": "function"
    },
    {
      "inputs": [
        {
          "internalType": "address[]",
          "name": "candidates",
          "type": "address[]"
        },
        {
          "internalType": "uint256[]",
          "name": "amounts",
          "type": "uint256[]"
        }
      ],
      "name": "cast",
      "outputs": [],
      "stateMutability": "payable",
      "type": "function"
    },
    {
      "inputs": [
        {
          "internalType": "address[]",
          "name": "membersToDismiss",
          "type": "address[]"
        }
      ],
      "name": "dismissMembers",
      "outputs": [],
      "stateMutability": "payable",
      "type": "function"
    },
    {
      "inputs": [
        {
          "internalType": "uint256",
          "name": "numBallots",
          "type": "uint256"
        }
      ],
      "name": "evaluate",
      "outputs": [],
      "stateMutability": "nonpayable",
      "type": "function"
    },
    {
      "inputs": [
        {
          "internalType": "address",
          "name": "voter",
          "type": "address"
        },
        {
          "internalType": "uint256",
          "name": "chainId",
          "type": "uint256"
        },
        {
          "internalType": "uint256",
          "name": "electionId",
          "type": "uint256"
        }
      ],
      "name": "getBallot",
      "outputs": [
        {
          "components": [
            {
              "internalType": "uint256",
              "name": "votingPower",
              "type": "uint256"
            },
            {
              "internalType": "address[]",
              "name": "votedCandidates",
              "type": "address[]"
            },
            {
              "internalType": "uint256[]",
              "name": "amounts",
              "type": "uint256[]"
            }
          ],
          "internalType": "struct Ballot.Data",
          "name": "",
          "type": "tuple"
        }
      ],
      "stateMutability": "pure",
      "type": "function"
    },
    {
      "inputs": [
        {
          "internalType": "address",
          "name": "voter",
          "type": "address"
        },
        {
          "internalType": "uint256",
          "name": "chainId",
          "type": "uint256"
        },
        {
          "internalType": "uint256",
          "name": "electionId",
          "type": "uint256"
        }
      ],
      "name": "getBallotCandidates",
      "outputs": [
        {
          "internalType": "address[]",
          "name": "",
          "type": "address[]"
        }
      ],
      "stateMutability": "view",
      "type": "function"
    },
    {
      "inputs": [
        {
          "internalType": "address",
          "name": "candidate",
          "type": "address"
        }
      ],
      "name": "getCandidateVotes",
      "outputs": [
        {
          "internalType": "uint256",
          "name": "",
          "type": "uint256"
        }
      ],
      "stateMutability": "view",
      "type": "function"
    },
    {
      "inputs": [],
      "name": "getCouncilMembers",
      "outputs": [
        {
          "internalType": "address[]",
          "name": "",
          "type": "address[]"
        }
      ],
      "stateMutability": "view",
      "type": "function"
    },
    {
      "inputs": [],
      "name": "getCouncilToken",
      "outputs": [
        {
          "internalType": "address",
          "name": "",
          "type": "address"
        }
      ],
      "stateMutability": "view",
      "type": "function"
    },
    {
      "inputs": [],
      "name": "getCurrentPeriod",
      "outputs": [
        {
          "internalType": "uint256",
          "name": "",
          "type": "uint256"
        }
      ],
      "stateMutability": "view",
      "type": "function"
    },
    {
      "inputs": [],
      "name": "getElectionSettings",
      "outputs": [
        {
          "components": [
            {
              "internalType": "uint8",
              "name": "epochSeatCount",
              "type": "uint8"
            },
            {
              "internalType": "uint8",
              "name": "minimumActiveMembers",
              "type": "uint8"
            },
            {
              "internalType": "uint64",
              "name": "epochDuration",
              "type": "uint64"
            },
            {
              "internalType": "uint64",
              "name": "nominationPeriodDuration",
              "type": "uint64"
            },
            {
              "internalType": "uint64",
              "name": "votingPeriodDuration",
              "type": "uint64"
            },
            {
              "internalType": "uint64",
              "name": "maxDateAdjustmentTolerance",
              "type": "uint64"
            }
          ],
          "internalType": "struct ElectionSettings.Data",
          "name": "settings",
          "type": "tuple"
        }
      ],
      "stateMutability": "view",
      "type": "function"
    },
    {
      "inputs": [],
      "name": "getElectionWinners",
      "outputs": [
        {
          "internalType": "address[]",
          "name": "",
          "type": "address[]"
        }
      ],
      "stateMutability": "view",
      "type": "function"
    },
    {
      "inputs": [],
      "name": "getEpochIndex",
      "outputs": [
        {
          "internalType": "uint256",
          "name": "",
          "type": "uint256"
        }
      ],
      "stateMutability": "view",
      "type": "function"
    },
    {
      "inputs": [],
      "name": "getEpochSchedule",
      "outputs": [
        {
          "components": [
            {
              "internalType": "uint64",
              "name": "startDate",
              "type": "uint64"
            },
            {
              "internalType": "uint64",
              "name": "nominationPeriodStartDate",
              "type": "uint64"
            },
            {
              "internalType": "uint64",
              "name": "votingPeriodStartDate",
              "type": "uint64"
            },
            {
              "internalType": "uint64",
              "name": "endDate",
              "type": "uint64"
            }
          ],
          "internalType": "struct Epoch.Data",
          "name": "epoch",
          "type": "tuple"
        }
      ],
      "stateMutability": "view",
      "type": "function"
    },
    {
      "inputs": [],
      "name": "getNextElectionSettings",
      "outputs": [
        {
          "components": [
            {
              "internalType": "uint8",
              "name": "epochSeatCount",
              "type": "uint8"
            },
            {
              "internalType": "uint8",
              "name": "minimumActiveMembers",
              "type": "uint8"
            },
            {
              "internalType": "uint64",
              "name": "epochDuration",
              "type": "uint64"
            },
            {
              "internalType": "uint64",
              "name": "nominationPeriodDuration",
              "type": "uint64"
            },
            {
              "internalType": "uint64",
              "name": "votingPeriodDuration",
              "type": "uint64"
            },
            {
              "internalType": "uint64",
              "name": "maxDateAdjustmentTolerance",
              "type": "uint64"
            }
          ],
          "internalType": "struct ElectionSettings.Data",
          "name": "settings",
          "type": "tuple"
        }
      ],
      "stateMutability": "view",
      "type": "function"
    },
    {
      "inputs": [],
      "name": "getNominees",
      "outputs": [
        {
          "internalType": "address[]",
          "name": "",
          "type": "address[]"
        }
      ],
      "stateMutability": "view",
      "type": "function"
    },
    {
      "inputs": [
        {
          "internalType": "address",
          "name": "user",
          "type": "address"
        },
        {
          "internalType": "uint256",
          "name": "chainId",
          "type": "uint256"
        },
        {
          "internalType": "uint256",
          "name": "electionId",
          "type": "uint256"
        }
      ],
      "name": "getVotePower",
      "outputs": [
        {
          "internalType": "uint256",
          "name": "",
          "type": "uint256"
        }
      ],
      "stateMutability": "view",
      "type": "function"
    },
    {
      "inputs": [
        {
          "internalType": "address",
          "name": "user",
          "type": "address"
        },
        {
          "internalType": "uint256",
          "name": "chainId",
          "type": "uint256"
        }
      ],
      "name": "hasVoted",
      "outputs": [
        {
          "internalType": "bool",
          "name": "",
          "type": "bool"
        }
      ],
      "stateMutability": "view",
      "type": "function"
    },
    {
      "inputs": [
        {
          "internalType": "uint256",
          "name": "epochIndex",
          "type": "uint256"
        },
        {
          "internalType": "uint64",
          "name": "epochStartDate",
          "type": "uint64"
        },
        {
          "internalType": "uint64",
          "name": "nominationPeriodStartDate",
          "type": "uint64"
        },
        {
          "internalType": "uint64",
          "name": "votingPeriodStartDate",
          "type": "uint64"
        },
        {
          "internalType": "uint64",
          "name": "epochEndDate",
          "type": "uint64"
        },
        {
          "internalType": "address[]",
          "name": "councilMembers",
          "type": "address[]"
        }
      ],
      "name": "initElectionModuleSatellite",
      "outputs": [],
      "stateMutability": "nonpayable",
      "type": "function"
    },
    {
      "inputs": [],
      "name": "initElectionModuleSatellite",
      "outputs": [],
      "stateMutability": "payable",
      "type": "function"
    },
    {
      "inputs": [
        {
          "internalType": "address[]",
          "name": "initialCouncil",
          "type": "address[]"
        },
        {
          "internalType": "uint8",
          "name": "minimumActiveMembers",
          "type": "uint8"
        },
        {
          "internalType": "uint64",
          "name": "initialNominationPeriodStartDate",
          "type": "uint64"
        },
        {
          "internalType": "uint64",
          "name": "administrationPeriodDuration",
          "type": "uint64"
        },
        {
          "internalType": "uint64",
          "name": "nominationPeriodDuration",
          "type": "uint64"
        },
        {
          "internalType": "uint64",
          "name": "votingPeriodDuration",
          "type": "uint64"
        }
      ],
      "name": "initOrUpdateElectionSettings",
      "outputs": [],
      "stateMutability": "nonpayable",
      "type": "function"
    },
    {
      "inputs": [],
      "name": "isElectionEvaluated",
      "outputs": [
        {
          "internalType": "bool",
          "name": "",
          "type": "bool"
        }
      ],
      "stateMutability": "view",
      "type": "function"
    },
    {
      "inputs": [],
      "name": "isElectionModuleInitialized",
      "outputs": [
        {
          "internalType": "bool",
          "name": "",
          "type": "bool"
        }
      ],
      "stateMutability": "view",
      "type": "function"
    },
    {
      "inputs": [
        {
          "internalType": "address",
          "name": "candidate",
          "type": "address"
        }
      ],
      "name": "isNominated",
      "outputs": [
        {
          "internalType": "bool",
          "name": "",
          "type": "bool"
        }
      ],
      "stateMutability": "view",
      "type": "function"
    },
    {
      "inputs": [],
      "name": "nominate",
      "outputs": [],
      "stateMutability": "nonpayable",
      "type": "function"
    },
    {
      "inputs": [],
      "name": "resolve",
      "outputs": [],
      "stateMutability": "payable",
      "type": "function"
    },
    {
      "inputs": [
        {
          "internalType": "uint8",
          "name": "epochSeatCount",
          "type": "uint8"
        },
        {
          "internalType": "uint8",
          "name": "minimumActiveMembers",
          "type": "uint8"
        },
        {
          "internalType": "uint64",
          "name": "epochDuration",
          "type": "uint64"
        },
        {
          "internalType": "uint64",
          "name": "nominationPeriodDuration",
          "type": "uint64"
        },
        {
          "internalType": "uint64",
          "name": "votingPeriodDuration",
          "type": "uint64"
        },
        {
          "internalType": "uint64",
          "name": "maxDateAdjustmentTolerance",
          "type": "uint64"
        }
      ],
      "name": "setNextElectionSettings",
      "outputs": [],
      "stateMutability": "nonpayable",
      "type": "function"
    },
    {
      "inputs": [
        {
          "internalType": "uint64",
          "name": "newNominationPeriodStartDate",
          "type": "uint64"
        },
        {
          "internalType": "uint64",
          "name": "newVotingPeriodStartDate",
          "type": "uint64"
        },
        {
          "internalType": "uint64",
          "name": "newEpochEndDate",
          "type": "uint64"
        }
      ],
      "name": "tweakEpochSchedule",
      "outputs": [],
      "stateMutability": "nonpayable",
      "type": "function"
    },
    {
      "inputs": [],
      "name": "withdrawNomination",
      "outputs": [],
      "stateMutability": "nonpayable",
      "type": "function"
    },
    {
      "inputs": [
        {
          "internalType": "address[]",
          "name": "candidates",
          "type": "address[]"
        }
      ],
      "name": "withdrawVote",
      "outputs": [],
      "stateMutability": "payable",
      "type": "function"
    },
    {
      "inputs": [
        {
          "internalType": "address",
          "name": "voter",
          "type": "address"
        },
        {
          "internalType": "uint256",
          "name": "electionId",
          "type": "uint256"
        }
      ],
      "name": "BallotAlreadyPrepared",
      "type": "error"
    },
    {
      "inputs": [],
      "name": "InvalidSnapshotContract",
      "type": "error"
    },
    {
      "inputs": [
        {
          "internalType": "uint256",
          "name": "",
          "type": "uint256"
        },
        {
          "internalType": "address",
          "name": "",
          "type": "address"
        }
      ],
      "name": "NoPower",
      "type": "error"
    },
    {
      "inputs": [],
      "name": "OverflowUint256ToUint128",
      "type": "error"
    },
    {
      "inputs": [
        {
          "internalType": "uint128",
          "name": "snapshotId",
          "type": "uint128"
        }
      ],
      "name": "SnapshotAlreadyTaken",
      "type": "error"
    },
    {
      "inputs": [
        {
          "internalType": "address",
          "name": "snapshotContract",
          "type": "address"
        },
        {
          "internalType": "uint128",
          "name": "electionId",
          "type": "uint128"
        }
      ],
      "name": "SnapshotNotTaken",
      "type": "error"
    },
    {
      "inputs": [
        {
          "internalType": "address",
          "name": "snapshotContract",
          "type": "address"
        },
        {
          "internalType": "uint128",
          "name": "electionId",
          "type": "uint128"
        }
      ],
      "name": "getVotePowerSnapshotId",
      "outputs": [
        {
          "internalType": "uint128",
          "name": "",
          "type": "uint128"
        }
      ],
      "stateMutability": "view",
      "type": "function"
    },
    {
      "inputs": [
        {
          "internalType": "address",
          "name": "snapshotContract",
          "type": "address"
        },
        {
          "internalType": "address",
          "name": "voter",
          "type": "address"
        }
      ],
      "name": "prepareBallotWithSnapshot",
      "outputs": [
        {
          "internalType": "uint256",
          "name": "power",
          "type": "uint256"
        }
      ],
      "stateMutability": "nonpayable",
      "type": "function"
    },
    {
      "inputs": [
        {
          "internalType": "address",
          "name": "snapshotContract",
          "type": "address"
        },
        {
          "internalType": "bool",
          "name": "enabled",
          "type": "bool"
        }
      ],
      "name": "setSnapshotContract",
      "outputs": [],
      "stateMutability": "nonpayable",
      "type": "function"
    },
    {
      "inputs": [
        {
          "internalType": "address",
          "name": "snapshotContract",
          "type": "address"
        }
      ],
      "name": "takeVotePowerSnapshot",
      "outputs": [
        {
          "internalType": "uint128",
          "name": "snapshotId",
          "type": "uint128"
        }
      ],
      "stateMutability": "nonpayable",
      "type": "function"
    },
    {
      "inputs": [
        {
          "internalType": "address",
          "name": "implementation",
          "type": "address"
        }
      ],
      "name": "ImplementationIsSterile",
      "type": "error"
    },
    {
      "inputs": [],
      "name": "NoChange",
      "type": "error"
    },
    {
      "inputs": [
        {
          "internalType": "address",
          "name": "contr",
          "type": "address"
        }
      ],
      "name": "NotAContract",
      "type": "error"
    },
    {
      "inputs": [
        {
          "internalType": "address",
          "name": "addr",
          "type": "address"
        }
      ],
      "name": "NotNominated",
      "type": "error"
    },
    {
      "inputs": [],
      "name": "UpgradeSimulationFailed",
      "type": "error"
    },
    {
      "inputs": [],
      "name": "ZeroAddress",
      "type": "error"
    },
    {
      "anonymous": false,
      "inputs": [
        {
          "indexed": false,
          "internalType": "address",
          "name": "oldOwner",
          "type": "address"
        },
        {
          "indexed": false,
          "internalType": "address",
          "name": "newOwner",
          "type": "address"
        }
      ],
      "name": "OwnerChanged",
      "type": "event"
    },
    {
      "anonymous": false,
      "inputs": [
        {
          "indexed": false,
          "internalType": "address",
          "name": "newOwner",
          "type": "address"
        }
      ],
      "name": "OwnerNominated",
      "type": "event"
    },
    {
      "anonymous": false,
      "inputs": [
        {
          "indexed": true,
          "internalType": "address",
          "name": "self",
          "type": "address"
        },
        {
          "indexed": false,
          "internalType": "address",
          "name": "implementation",
          "type": "address"
        }
      ],
      "name": "Upgraded",
      "type": "event"
    },
    {
      "inputs": [],
      "name": "acceptOwnership",
      "outputs": [],
      "stateMutability": "nonpayable",
      "type": "function"
    },
    {
      "inputs": [],
      "name": "getImplementation",
      "outputs": [
        {
          "internalType": "address",
          "name": "",
          "type": "address"
        }
      ],
      "stateMutability": "view",
      "type": "function"
    },
    {
      "inputs": [
        {
          "internalType": "address",
          "name": "newNominatedOwner",
          "type": "address"
        }
      ],
      "name": "nominateNewOwner",
      "outputs": [],
      "stateMutability": "nonpayable",
      "type": "function"
    },
    {
      "inputs": [],
      "name": "nominatedOwner",
      "outputs": [
        {
          "internalType": "address",
          "name": "",
          "type": "address"
        }
      ],
      "stateMutability": "view",
      "type": "function"
    },
    {
      "inputs": [],
      "name": "owner",
      "outputs": [
        {
          "internalType": "address",
          "name": "",
          "type": "address"
        }
      ],
      "stateMutability": "view",
      "type": "function"
    },
    {
      "inputs": [],
      "name": "renounceNomination",
      "outputs": [],
      "stateMutability": "nonpayable",
      "type": "function"
    },
    {
      "inputs": [
        {
          "internalType": "address",
          "name": "newImplementation",
          "type": "address"
        }
      ],
      "name": "simulateUpgradeTo",
      "outputs": [],
      "stateMutability": "nonpayable",
      "type": "function"
    },
    {
      "inputs": [
        {
          "internalType": "address",
          "name": "newImplementation",
          "type": "address"
        }
      ],
      "name": "upgradeTo",
      "outputs": [],
      "stateMutability": "nonpayable",
      "type": "function"
    },
    {
      "inputs": [],
      "name": "InvalidMessage",
      "type": "error"
    },
    {
      "inputs": [
        {
          "internalType": "address",
          "name": "",
          "type": "address"
        }
      ],
      "name": "NotCcipRouter",
      "type": "error"
    },
    {
      "inputs": [
        {
          "internalType": "uint64",
          "name": "",
          "type": "uint64"
        }
      ],
      "name": "UnsupportedNetwork",
      "type": "error"
    },
    {
      "inputs": [
        {
          "components": [
            {
              "internalType": "bytes32",
              "name": "messageId",
              "type": "bytes32"
            },
            {
              "internalType": "uint64",
              "name": "sourceChainSelector",
              "type": "uint64"
            },
            {
              "internalType": "bytes",
              "name": "sender",
              "type": "bytes"
            },
            {
              "internalType": "bytes",
              "name": "data",
              "type": "bytes"
            },
            {
              "components": [
                {
                  "internalType": "address",
                  "name": "token",
                  "type": "address"
                },
                {
                  "internalType": "uint256",
                  "name": "amount",
                  "type": "uint256"
                }
              ],
              "internalType": "struct CcipClient.EVMTokenAmount[]",
              "name": "tokenAmounts",
              "type": "tuple[]"
            }
          ],
          "internalType": "struct CcipClient.Any2EVMMessage",
          "name": "message",
          "type": "tuple"
        }
      ],
      "name": "ccipReceive",
      "outputs": [],
      "stateMutability": "nonpayable",
      "type": "function"
    }
  ],
  "bytecode": "0x608060405234801561001057600080fd5b50614565806100206000396000f3fe6080604052600436106101e35760003560e01c80639636f67c11610102578063d82f25f011610095578063e549a29011610064578063e549a290146105c5578063f2516dbf146105da578063fcd7e1d7146105ef578063ffe7f6431461060457600080fd5b8063d82f25f0146104f6578063e1425cf514610516578063e327b58514610590578063e4220d1e146105a557600080fd5b8063aede2fa5116100d1578063aede2fa514610472578063c07de0d31461049f578063c5798523146104cc578063d11801cf146104e157600080fd5b80639636f67c146104175780639a25eaf31461042c578063a31d297e1461043f578063a90486321461045257600080fd5b8063606a6b761161017a578063881a2c6411610149578063881a2c64146103975780638a39030a146103b75780638f701997146103d757806391baec87146103f757600080fd5b8063606a6b76146103225780636acac61f1461034457806374cc3e0d146103645780637b3d63e01461037757600080fd5b80633d32f239116101b65780633d32f2391461026a5780633f77ec6e146102c257806342545825146102e2578063464d43321461030257600080fd5b8063086146d2146101e85780632810e1d614610210578063371432331461021a5780633a3e6c811461023a575b600080fd5b3480156101f457600080fd5b506101fd610619565b6040519081526020015b60405180910390f35b610218610649565b005b34801561022657600080fd5b50610218610235366004613a7a565b6107c6565b34801561024657600080fd5b5061025a610255366004613aaf565b6109dd565b6040519015158152602001610207565b34801561027657600080fd5b5061027f610a02565b604051610207919081516001600160401b039081168252602080840151821690830152604080840151821690830152606092830151169181019190915260800190565b3480156102ce57600080fd5b506102186102dd366004613b0e565b610a7a565b3480156102ee57600080fd5b5061025a6102fd366004613baa565b610c24565b34801561030e57600080fd5b5061021861031d366004613beb565b610c61565b34801561032e57600080fd5b50610337610cac565b6040516102079190613cbe565b34801561035057600080fd5b5061021861035f366004613cd1565b610cc1565b610218610372366004613d1e565b610cf0565b34801561038357600080fd5b50610218610392366004613d89565b610de8565b3480156103a357600080fd5b506103376103b2366004613dd4565b610e6e565b3480156103c357600080fd5b506102186103d2366004613e2e565b610ee0565b3480156103e357600080fd5b506102186103f2366004613f45565b610fa3565b34801561040357600080fd5b50610218610412366004613f88565b6110cf565b34801561042357600080fd5b5061033761113d565b61021861043a366004613fc6565b611155565b61021861044d366004613a7a565b61124f565b34801561045e57600080fd5b506101fd61046d366004613dd4565b611360565b34801561047e57600080fd5b5061049261048d366004613dd4565b611378565b6040516102079190614007565b3480156104ab57600080fd5b506104b461147f565b6040516001600160a01b039091168152602001610207565b3480156104d857600080fd5b5061025a611498565b3480156104ed57600080fd5b506102186114a2565b34801561050257600080fd5b506101fd610511366004613aaf565b61153f565b34801561052257600080fd5b5061052b61156e565b6040516102079190600060c08201905060ff835116825260ff602084015116602083015260408301516001600160401b0380821660408501528060608601511660608501528060808601511660808501528060a08601511660a0850152505092915050565b34801561059c57600080fd5b5061025a611612565b3480156105b157600080fd5b506102186105c0366004613beb565b611628565b3480156105d157600080fd5b5061052b61163f565b3480156105e657600080fd5b5061033761167c565b3480156105fb57600080fd5b50610218611694565b34801561061057600080fd5b506101fd611734565b600061063361062e610629611747565b6117a9565b6117b8565b6003811115610644576106446140af565b905090565b610653600361183f565b600061065d611747565b9050600061066a82611897565b805490915060ff1661068f57604051634e6a146760e11b815260040160405180910390fd5b600061069a836118a6565b905060006106a7846118b5565b90506106b381836118d0565b60006106be82611a1e565b80516020820151604083015160608401519394506106e0938993929190611ae7565b6106e985611d54565b5060006106f4611d72565b905061078261070282611dc3565b63e4220d1e60e01b8860010154856000015186602001518760400151886060015161072f8d600401611e96565b604051602401610744969594939291906140c5565b60408051601f198184030181529190526020810180516001600160e01b03166001600160e01b031990931692909217909152839190620186a0611eaa565b50845461ff00191661010017855560018601546040517f968139de8ea4f6dca3f75fdde04ee69529bde77210bb1cc0b58e954fd3d9b61990600090a2505050505050565b6107d0600361183f565b60006107da611747565b905060006107e782611897565b905060006107f4836117a9565b6040805160808101825291546001600160401b038082168452600160401b820481166020850152600160801b8204811692840192909252600160c01b9004166060820152600184015490915060009061084c9061219f565b8054909150610100900460ff1661086560028501611e96565b5110156108fa576000610876611d72565b90506108f361088482611dc3565b636acac61f60e01b8760010154866020015187604001518760000160129054906101000a90046001600160401b031689606001516108c29190614129565b60405160248101949094526001600160401b039283166044850152908216606484015216608482015260a401610744565b50506109d6565b825460ff161561091d5760405163fd22975360e01b815260040160405180910390fd5b61092685612216565b60018401546000610938600686015490565b9050808560010154101561098b576001850154604080519182526020820183905283917f0b1080b1dbbb0d094f410f8b1b6a2633bf79116996b40b806654748011b1df0b910160405180910390a26109d3565b845460ff1916600117855560405182907f7c757193e7e9b337037d5688d06fac74a0d837d516d08798bf90bc06d4acee90906109ca9084815260200190565b60405180910390a25b50505b5050505050565b60006109fc826109f36109ee611747565b611897565b60020190612284565b92915050565b604080516080810182526000808252602082018190529181018290526060810191909152610a31610629611747565b6040805160808101825291546001600160401b038082168452600160401b820481166020850152600160801b8204811692840192909252600160c01b9004166060820152919050565b610a826122a6565b610a8c600261183f565b6001831115610ab757604051634bab873760e11b8152600401610aae90614150565b60405180910390fd5b828114610ad757604051634bab873760e11b8152600401610aae906141ac565b6000610ae1611747565b90506000610aee82611897565b60018301549091508a8114610b5f5760408051634bab873760e11b81526004810191909152600a6044820152690cae0dec6d092dcc8caf60b31b60648201526080602482015260136084820152720d2dcecc2d8d2c840cae0dec6d040d2dcc8caf606b1b60a482015260c401610aae565b610b6987876122ec565b6000610b7a84600101548c8b612438565b9050610b8a6001820189896139cb565b50610b99600282018787613a2a565b50898155610ba6816124ae565b60008181526007840160205260409020548190610bca57610bca60068501826124d7565b828a8d6001600160a01b03167f05873bee1fa0cb7404ab4cd3e2127ad917fbe93623a483ea6526531990e1053385600001548d8d604051610c0d9392919061424e565b60405180910390a450505050505050505050505050565b600080610c2f611747565b90506000610c4282600101548686612438565b805490915015801590610c585750600181015415155b95945050505050565b610c696122a6565b6000610c73611747565b9050610c7d612530565b15610c8857506109d3565b805460ff19166001178155610ca28888888888888861253a565b5050505050505050565b6060610644610cb96125b2565b600101611e96565b610cc96122a6565b6000610cd485612605565b80549091506109d69082906001600160401b0316868686612650565b610cfa600261183f565b6000610d046126ba565b90506000610d10611747565b6001015490506000610d23828446612438565b8054909150600003610d5a57604051638102b74960e01b81526001600160a01b038416600482015260248101839052604401610aae565b6000610d64611d72565b9050610ddd610d748260006126f7565b633f77ec6e60e01b85878660000154468e8e8e8e604051602401610d9f989796959493929190614268565b60408051601f198184030181529190526020810180516001600160e01b03166001600160e01b031990931692909217909152839190620186a0612722565b505050505050505050565b610df06122a6565b610e2e838380806020026020016040519081016040528093929190818152602001838360200280828437600092019190915250859250612791915050565b7f5c9cb9436a66566a014c694eb6cd67ff16b01deb8b210630a0a0d894a3a7035f838383604051610e61939291906142d8565b60405180910390a1505050565b6060610e7b828585612438565b600101805480602002602001604051908101604052809291908181526020018280548015610ed257602002820191906000526020600020905b81546001600160a01b03168152600190910190602001808311610eb4575b505050505090509392505050565b610ee86127fb565b855160ff1015610f0b57604051635659186560e01b815260040160405180910390fd5b6000610f15611747565b9050610f2484620151806142fc565b9350610f3383620151806142fc565b9250610f4282620151806142fc565b8751909250600083610f548688614129565b610f5e9190614129565b90506000610f6b846118b5565b9050610f7f81848b858a8a6203f480612836565b610f87612530565b610f9757610f9784828c8b612961565b50505050505050505050565b610fab6127fb565b610fb5600061183f565b6000610fbf611747565b90506000610fcc826117a9565b6040805160808101825282546001600160401b039081168252888116602083015287811692820192909252908516606082015290915061100d838383612a88565b6000611017611d72565b905061107261102582611dc3565b600186015460208501516040808701516060880151915160248101949094526001600160401b03928316604485015282166064840152166084820152636acac61f60e01b9060a401610744565b5081602001516001600160401b03167fd289c6d0460c72f1845f45057a36c0e80be8a0d367aebb7675fe64cdab632964836040015184606001516040516109ca9291906001600160401b0392831681529116602082015260400190565b6110d76127fb565b6110e1600061183f565b61113586866110f387620151806142fc565b61110087620151806142fc565b61110d87620151806142fc565b61111a87620151806142fc565b61112a611125611747565b6118b5565b959493929190612836565b505050505050565b606061064461114d6109ee611747565b600201611e96565b61115d6127fb565b6000611167611747565b90506000611174826117a9565b90506000611180611d72565b90506111af61118e82611dc3565b60018501546040516303d9eb1f60e51b91610744918a918a916024016142d8565b5060006111ba6125b2565b905060006111c7846117b8565b60038111156111d8576111d86140af565b146111e557505050505050565b6111ee846118a6565b54610100900460ff1661120360018301612bdf565b1061121057505050505050565b61121984612be9565b60018401546040517f9c2bae1456357809a1c870e1e63679a1f7972f8b45dcc26b64338cd925c0857290600090a2505050505050565b6112576127fb565b6000611261611d72565b905061126d8183612c70565b60006112776125b2565b90506000611283611747565b90506000611290826117a9565b6040805160808101825291546001600160401b038082168452600160401b820481166020850152600160801b8204811692840192909252600160c01b900416606082015290506111356112e286612caf565b6001808501548451602086015160408701516060880151632326a19960e11b9561130d908c01611e96565b604051602401611322969594939291906140c5565b60408051601f198184030181529190526020810180516001600160e01b03166001600160e01b031990931692909217909152869190620186a0612722565b60008061136e838686612438565b5495945050505050565b61139c60405180606001604052806000815260200160608152602001606081525090565b6113a7828585612438565b604051806060016040529081600082015481526020016001820180548060200260200160405190810160405280929190818152602001828054801561141557602002820191906000526020600020905b81546001600160a01b031681526001909101906020018083116113f7575b505050505081526020016002820180548060200260200160405190810160405280929190818152602001828054801561146d57602002820191906000526020600020905b815481526020019060010190808311611459575b50505050508152505090509392505050565b60006114896125b2565b546001600160a01b0316919050565b6000610644612530565b60006114af6109ee611747565b60020190506114be600161183f565b60006114c86126ba565b90506114d48282612284565b6114f157604051639ceae3db60e01b815260040160405180910390fd5b6114fb8282612cdd565b611503611747565b600101546040516001600160a01b038316907fd4e9073cc1c197d638f4da96c7cf415bc573b6f600ccba01627c416267d9dd3b90600090a35050565b600061154c6109ee611747565b6001600160a01b03909216600090815260089290920160205250604090205490565b6040805160c081018252600080825260208201819052918101829052606081018290526080810182905260a08101919091526115b06115ab611747565b6118a6565b6040805160c081018252825460ff808216835261010082041660208301526001600160401b03620100008204811693830193909352600160501b810483166060830152600160901b9004821660808201526001909201541660a0820152919050565b600061161f6109ee611747565b5460ff16919050565b6116306122a6565b6109d38787878787878761253a565b6040805160c081018252600080825260208201819052918101829052606081018290526080810182905260a08101919091526115b0611125611747565b606061064461168c6109ee611747565b600401611e96565b6116a060016002612cf0565b60006116ad6109ee611747565b600201905060006116bc6126ba565b90506116c88282612284565b156116e6576040516328f3e0eb60e11b815260040160405180910390fd5b6116f08282612d79565b6116f8611747565b600101546040516001600160a01b038316907fd30cd5d8ca68864f2e956b063eda9b0e91ca33e27b30e7d4cb121e0208e086f890600090a35050565b600061173e611747565b60010154905090565b60008060405160200161178b906020808252601f908201527f696f2e73796e7468657469782e676f7665726e616e63652e436f756e63696c00604082015260600190565b60408051601f19818403018152919052805160209091012092915050565b60006109fc8260010154612605565b6000806117c442612caf565b83549091506001600160401b03600160c01b9091048116908216106117ec5750600392915050565b82546001600160401b03600160801b9091048116908216106118115750600292915050565b82546001600160401b03600160401b9091048116908216106118365750600192915050565b50600092915050565b600061184f61062e610629611747565b9050816003811115611863576118636140af565b816003811115611875576118756140af565b1461189357604051632e20231560e21b815260040160405180910390fd5b5050565b60006109fc8260010154612d8c565b60006109fc826001015461219f565b60006109fc826001015460016118cb9190614327565b61219f565b815460ff166000036118ed578054825460ff191660ff9091161782555b8154610100900460ff16600003611918578054825461ff0019166101009182900460ff169091021782555b81546201000090046001600160401b0316600003611959578054825469ffffffffffffffff0000191662010000918290046001600160401b03169091021782555b8154600160501b90046001600160401b031660000361199d578054825467ffffffffffffffff60501b1916600160501b918290046001600160401b03169091021782555b8154600160901b90046001600160401b03166000036119e1578054825467ffffffffffffffff60901b1916600160901b918290046001600160401b03169091021782555b60018201546001600160401b0316600003611893576001908101549101805467ffffffffffffffff19166001600160401b03909216919091179055565b604080516080810182526000808252602082018190529181018290526060810182905290611a4b42612caf565b8354909150600090611a6c906201000090046001600160401b031683614129565b8454909150600090611a8e90600160901b90046001600160401b03168361433a565b8554909150600090611ab090600160501b90046001600160401b03168361433a565b604080516080810182526001600160401b039687168152918616602083015292851692810192909252509116606082015292915050565b816001600160401b0316816001600160401b031611611b335760405163f4137ffd60e01b8152600160048201526001600160401b03808316602483015283166044820152606401610aae565b826001600160401b0316826001600160401b031611611b7f5760405163f4137ffd60e01b8152600260048201526001600160401b03808416602483015284166044820152606401610aae565b836001600160401b0316836001600160401b031611611bcb5760405163f4137ffd60e01b8152600360048201526001600160401b03808516602483015285166044820152606401610aae565b6000611bd7858361433a565b90506000611be5848461433a565b90506000611bf3868661433a565b90506000611c00896118a6565b8054909150611c28906001600160401b03600160901b8204811691600160501b900416614129565b6001600160401b0316846001600160401b03161015611c9e5780546004908590611c6b906001600160401b03600160901b8204811691600160501b900416614129565b60405163f4137ffd60e01b815260048101939093526001600160401b039182166024840152166044820152606401610aae565b80546001600160401b03600160501b90910481169083161015611cf957805460405163f4137ffd60e01b8152600560048201526001600160401b038085166024830152600160501b9092049091166044820152606401610aae565b80546001600160401b03600160901b90910481169084161015610ddd57805460405163f4137ffd60e01b8152600660048201526001600160401b038086166024830152600160901b9092049091166044820152606401610aae565b60008160010160008154611d679061435a565b918290555092915050565b60008060405160200161178b9060208082526024908201527f696f2e73796e7468657469782e636f72652d6d6f64756c65732e43726f7373436040820152633430b4b760e11b606082015260800190565b6060600182016000611dd482611e96565b9050600081516001600160401b03811115611df157611df1613e07565b604051908082528060200260200182016040528015611e1a578160200160208202803683370190505b50905060005b8251811015611e8d576000611e4d848381518110611e4057611e40614373565b6020026020010151612caf565b905080838381518110611e6257611e62614373565b6001600160401b03909216602092830291909101909101525080611e858161435a565b915050611e20565b50949350505050565b60606000611ea383612dd6565b9392505050565b83546000906001600160a01b0316815b855181101561218b576000868281518110611ed757611ed7614373565b6020026020010151905046816001600160401b031603611f6857600080306001600160a01b031688604051611f0c91906143ad565b6000604051808303816000865af19150503d8060008114611f49576040519150601f19603f3d011682016040523d82523d6000602084013e611f4e565b606091505b509150915081611f615780518060208301fd5b5050612178565b6040805160a0810182523060c0808301919091528251808303909101815260e08201835281526020808201899052825160008082529181018452909282019083611fd4565b6040805180820190915260008082526020820152815260200190600190039081611fad5790505b508152600060208083018290526040805180820182528b815282019283528051602481018c905292511515604480850191909152815180850390910181526064909301815290820180516001600160e01b03166397a657c960e01b179052909101526001600160401b03808416600090815260038c0160205260408082205490516320487ded60e01b8152939450909116916001600160a01b038716906320487ded9061208790859087906004016143f5565b602060405180830381865afa1580156120a4573d6000803e3d6000fd5b505050506040513d601f19601f820116820180604052508101906120c891906144ce565b9050804710156120f4576040516320d0c54d60e21b815260048101829052476024820152604401610aae565b6040516396f4e9f960e01b81526001600160a01b038716906396f4e9f990839061212490869088906004016143f5565b60206040518083038185885af1158015612142573d6000803e3d6000fd5b50505050506040513d601f19601f8201168201806040525081019061216791906144ce565b506121728188614327565b96505050505b50806121838161435a565b915050611eba565b5061219582612e32565b5050949350505050565b6040805160208101829052602860608201527f696f2e73796e7468657469782e676f7665726e616e63652e456c656374696f6e60808201526753657474696e677360c01b60a0820152908101829052600090819060c0015b60408051601f1981840301815291905280516020909101209392505050565b6000612220611747565b9050600061222d82611897565b9050600061223a836118a6565b90508360000361224a576101f493505b6000612257836006015490565b6001840154909150600061226b8783614327565b9050828111156122785750815b6109d385858484612eb4565b6001600160a01b03811660009081526001830160205260408120541515611ea3565b306122af6126ba565b6001600160a01b0316146122ea576122c56126ba565b60405163472511eb60e11b81526001600160a01b039091166004820152602401610aae565b565b80600081900361230f57604051633941064160e21b815260040160405180910390fd5b600061231c6109ee611747565b600201905060005b828110156109d657600085858381811061234057612340614373565b90506020020160208101906123559190613aaf565b90506123618382612284565b61237e57604051639ceae3db60e01b815260040160405180910390fd5b6123896001856144e7565b82101561242557600061239d836001614327565b90505b848110156124235760008787838181106123bc576123bc614373565b90506020020160208101906123d19190613aaf565b9050806001600160a01b0316836001600160a01b0316036124105760405163ba156e7b60e01b81526001600160a01b0384166004820152602401610aae565b508061241b8161435a565b9150506123a0565b505b50806124308161435a565b915050612324565b6040805160806020808301829052601e60a08401527f696f2e73796e7468657469782e676f7665726e616e63652e42616c6c6f74000060c080850191909152838501979097526001600160a01b039590951660608301528101929092528051808303909401845260e09091019052815191012090565b6124b781612f00565b6124d457604051637611594360e01b815260040160405180910390fd5b50565b6000818152600183016020526040902054156125065760405163682ad32d60e01b815260040160405180910390fd5b81546001818101845560008481526020808220909301849055845493815293019052604090912055565b600061161f611747565b6000612544611747565b600181018054908a9055909150600061255c8a612605565b905061256b818a8a8a8a612650565b61257482612fae565b610f978585808060200260200160405190810160405280939291908181526020018383602002808284376000920191909152508e9250612ffb915050565b60008060405160200161178b9060208082526026908201527f696f2e73796e7468657469782e676f7665726e616e63652e436f756e63696c4d604082015265656d6265727360d01b606082015260800190565b6040805160208101829052601d60608201527f696f2e73796e7468657469782e676f7665726e616e63652e45706f63680000006080820152908101829052600090819060a0016121f7565b84546001600160401b039485166fffffffffffffffffffffffffffffffff1990911617600160401b93851693909302929092176fffffffffffffffffffffffffffffffff16600160801b918416919091026001600160c01b031617600160c01b9190921602179055565b600073ae788aaf52780741e12bf79ad684b91bb0ef4d92331480156126e0575060143610155b156126f2575060131936013560601c90565b503390565b6000611ea361271d61270a846001614129565b60018601906001600160401b031661306c565b612caf565b60408051600180825281830190925260009182919060208083019080368337019050509050848160008151811061275b5761275b614373565b60200260200101906001600160401b031690816001600160401b03168152505061278786828686611eaa565b9695505050505050565b815160008190036127b55760405163521299a960e01b815260040160405180910390fd5b60005b818110156127f5576127e38482815181106127d5576127d5614373565b60200260200101518461307e565b806127ed8161435a565b9150506127b8565b50505050565b612803613185565b6001600160a01b0316336001600160a01b0316146122ea5760405163472511eb60e11b8152336004820152602401610aae565b865460ff87811661ffff1990921691909117610100918716919091021771ffffffffffffffffffffffffffffffff00001916620100006001600160401b038681169190910267ffffffffffffffff60501b191691909117600160501b858316021767ffffffffffffffff60901b1916600160901b8483160217885560018801805467ffffffffffffffff19169183169190911790556128d48761318f565b865460018801546040805160ff808516825261010085041660208201526001600160401b03620100008504811692820192909252600160501b840482166060820152600160901b909304811660808401521660a08201527f305a7d62fbe09738c7ca033adf1a2c319e92a17f32b54b711dd3e865795f239a9060c00160405180910390a150505050505050565b600061296c856118a6565b905061297881856118d0565b600061298342612caf565b85549091506000906129a4906201000090046001600160401b031683614129565b86549091506000906129c690600160901b90046001600160401b03168361433a565b9050846001600160401b03166000036129f85786546129f590600160501b90046001600160401b03168261433a565b94505b6000612a03896117a9565b9050612a138982868986886132b2565b612a1e876000612ffb565b885460ff191660011789556040517fedd2375ae1196fe91e924096f373e5d416893b6da334911ea52c9dd02ec2a0cb90600090a16040516000907f968139de8ea4f6dca3f75fdde04ee69529bde77210bb1cc0b58e954fd3d9b619908290a2505050505050505050565b6000612a93846118a6565b60018101546060840151825486549394506001600160401b0392831693612acc93612ac79262010000900481169116614129565b6132cc565b6001600160401b03161180612b1157506001810154602083015184546001600160401b0392831692612b069291600160401b9004166132cc565b6001600160401b0316115b80612b4c57506001810154604083015184546001600160401b0392831692612b419291600160801b9004166132cc565b6001600160401b0316115b15612b7b5760405163f4137ffd60e01b8152600760048201526000602482018190526044820152606401610aae565b8254602083015160408401516060850151612ba59388936001600160401b03909116929091611ae7565b6000612bb083613300565b6003811115612bc157612bc16140af565b146127f557604051636af1cb2160e01b815260040160405180910390fd5b60006109fc825490565b6000612bf4826117a9565b90506000612c01836118a6565b90506000612c0e42612caf565b8254909150600090612c3090600160501b90046001600160401b031683614129565b8354909150600090612c5290600160901b90046001600160401b031683614129565b855490915061113590879087906001600160401b03168686866132b2565b612c7d6001830182613380565b61189357612c8a81612caf565b60405163900d29db60e01b81526001600160401b039091166004820152602401610aae565b60006001600160401b03821115612cd9576040516372b1c34f60e01b815260040160405180910390fd5b5090565b611893826001600160a01b038316613398565b6000612d0061062e610629611747565b9050826003811115612d1457612d146140af565b816003811115612d2657612d266140af565b14158015612d565750816003811115612d4157612d416140af565b816003811115612d5357612d536140af565b14155b15612d7457604051632e20231560e21b815260040160405180910390fd5b505050565b611893826001600160a01b0383166124d7565b60408051602080820183905260608201527f696f2e73796e7468657469782e676f7665726e616e63652e456c656374696f6e6080820152908101829052600090819060a0016121f7565b606081600001805480602002602001604051908101604052809291908181526020018280548015612e2657602002820191906000526020600020905b815481526020019060010190808311612e12575b50505050509050919050565b6000612e3e82346144e7565b9050600080612e4b6126ba565b6001600160a01b03168360405160006040518083038185875af1925050503d8060008114612e95576040519150601f19603f3d011682016040523d82523d6000602084013e612e9a565b606091505b509150915081612ead5780518060208301fd5b5050919050565b825460ff16825b82811015611135576000612edd612ed3836001614327565b6006890190613497565b905080612eeb8882866134fc565b50508080612ef89061435a565b915050612ebb565b6002810154600182015460009114612f1a57506000919050565b6000805b6001840154811015612f9a57836002018181548110612f3f57612f3f614373565b9060005260206000200154600003612f5b575060009392505050565b836002018181548110612f7057612f70614373565b906000526020600020015482612f869190614327565b915080612f928161435a565b915050612f1e565b50801580611ea35750825481149392505050565b6000612fb86125b2565b60010190506000612fc882612bdf565b905060005b818110156127f557612fe9612fe384600161306c565b8561307e565b80612ff38161435a565b915050612fcd565b8151600081900361301f5760405163521299a960e01b815260040160405180910390fd5b60006130296125b2565b905060005b828110156109d65761305a8286838151811061304c5761304c614373565b6020026020010151866135dd565b806130648161435a565b91505061302e565b6000611ea361307b8484613497565b90565b60006130886125b2565b9050600181016130988185612284565b6130b55760405163051b79b960e31b815260040160405180910390fd5b6130bf8185612cdd565b6001600160a01b0384166130e96130e46b31b7bab731b4b62a37b5b2b760a11b6136d9565b613737565b6001600160a01b03166342966c68826040518263ffffffff1660e01b815260040161311691815260200190565b600060405180830381600087803b15801561313057600080fd5b505af1158015613144573d6000803e3d6000fd5b50506040518692506001600160a01b03881691507f208c29b08f363039c7c656b8f572656a2489f862113410d36201aa340657f1b490600090a35050505050565b600061148961375a565b805460ff1615806131a757508054610100900460ff16155b806131bd5750805460ff80821661010090920416115b806131d6575080546201000090046001600160401b0316155b806131f057508054600160501b90046001600160401b0316155b8061320a57508054600160901b90046001600160401b0316155b8061322d5750613219816137aa565b8154600160501b90046001600160401b0316105b80613250575061323c816137aa565b8154600160901b90046001600160401b0316105b806132945750805461327b906001600160401b03600160901b8204811691600160501b900416614129565b81546001600160401b0391821662010000909104909116105b156124d457604051630a21d9ed60e31b815260040160405180910390fd5b6132bf8685858585611ae7565b6111358585858585612650565b6000816001600160401b0316836001600160401b0316116132f6576132f1838361433a565b611ea3565b611ea3828461433a565b60008061330c42612caf565b905082606001516001600160401b0316816001600160401b0316106133345750600392915050565b82604001516001600160401b0316816001600160401b03161061335a5750600292915050565b82602001516001600160401b0316816001600160401b0316106118365750600192915050565b60008181526001830160205260408120541515611ea3565b6000818152600183016020526040812054908190036133ca5760405163b3dbc29360e01b815260040160405180910390fd5b60006133d76001836144e7565b84549091506000906133eb906001906144e7565b905080821461345057600085600001828154811061340b5761340b614373565b906000526020600020015490508086600001848154811061342e5761342e614373565b6000918252602080832090910192909255918252600187019052604090208390555b8454859080613461576134616144fa565b60019003818190600052602060002001600090559055846001016000858152602001908152602001600020600090555050505050565b60008115806134a65750825482115b156134c45760405163eb9bc44760e01b815260040160405180910390fd5b60006134d16001846144e7565b90508360000181815481106134e8576134e8614373565b906000526020600020015491505092915050565b600182015460005b818110156135bc57600084600101828154811061352357613523614373565b60009182526020808320909101546001600160a01b03168083526008890190915260408220546002880180549294509092918590811061356557613565614373565b90600052602060002001548261357b9190614327565b6001600160a01b038416600090815260088a016020526040902081905590506135a6888483896137d7565b50505080806135b49061435a565b915050613504565b5060018460010160008282546135d29190614327565b909155505050505050565b600183016135eb8184612284565b15613609576040516348ac2ca160e11b815260040160405180910390fd5b6136138184612d79565b6001600160a01b0383166136386130e46b31b7bab731b4b62a37b5b2b760a11b6136d9565b6040516340c10f1960e01b81526001600160a01b0386811660048301526024820184905291909116906340c10f1990604401600060405180830381600087803b15801561368457600080fd5b505af1158015613698573d6000803e3d6000fd5b50506040518592506001600160a01b03871691507fe5b0ed13a85f5d5ab0d550273eaa6af99d84021d0ed22940dcc8835afc4243e890600090a35050505050565b6040805160208101829052602a60608201527f696f2e73796e7468657469782e636f72652d6d6f64756c65732e4173736f63696080820152696174656453797374656d60b01b60a0820152908101829052600090819060c0016121f7565b600061374c826565726337323160d01b613834565b50546001600160a01b031690565b60008060405160200161178b9060208082526023908201527f696f2e73796e7468657469782e636f72652d636f6e7472616374732e4f776e61604082015262626c6560e81b606082015260800190565b60018101546000906137c8906001600160401b031662015180614129565b6001600160401b031692915050565b600484016137e58185612284565b156137f057506127f5565b816137fa82612bdf565b10156138105761380a8185612d79565b506127f5565b60008061381d878461387c565b91509150808511156109d3576109d38383886138f5565b60028201548181148015906138555750681d5b9b585b9859d95960ba1b8114155b15612d745760405162d5319f60e31b81526004810183905260248101829052604401610aae565b60006000198161388b84612bdf565b905060015b818160ff16116138eb5760006138a98660ff841661306c565b6001600160a01b0381166000908152600889016020526040902054909150848110156138d6578094508195505b505080806138e390614510565b915050613890565b50505b9250929050565b612d74836001600160a01b0384166001600160a01b038416600082815260018401602052604090205461393b5760405163b3dbc29360e01b815260040160405180910390fd5b60008181526001840160205260409020541561396a5760405163682ad32d60e01b815260040160405180910390fd5b6000828152600180850160205260408220805490839055919061398d90836144e7565b9050828560000182815481106139a5576139a5614373565b600091825260208083209091019290925593845260019095019094526040909120555050565b828054828255906000526020600020908101928215613a1e579160200282015b82811115613a1e5781546001600160a01b0319166001600160a01b038435161782556020909201916001909101906139eb565b50612cd9929150613a65565b828054828255906000526020600020908101928215613a1e579160200282015b82811115613a1e578235825591602001919060010190613a4a565b5b80821115612cd95760008155600101613a66565b600060208284031215613a8c57600080fd5b5035919050565b80356001600160a01b0381168114613aaa57600080fd5b919050565b600060208284031215613ac157600080fd5b611ea382613a93565b60008083601f840112613adc57600080fd5b5081356001600160401b03811115613af357600080fd5b6020830191508360208260051b85010111156138ee57600080fd5b60008060008060008060008060c0898b031215613b2a57600080fd5b88359750613b3a60208a01613a93565b9650604089013595506060890135945060808901356001600160401b0380821115613b6457600080fd5b613b708c838d01613aca565b909650945060a08b0135915080821115613b8957600080fd5b50613b968b828c01613aca565b999c989b5096995094979396929594505050565b60008060408385031215613bbd57600080fd5b613bc683613a93565b946020939093013593505050565b80356001600160401b0381168114613aaa57600080fd5b600080600080600080600060c0888a031215613c0657600080fd5b87359650613c1660208901613bd4565b9550613c2460408901613bd4565b9450613c3260608901613bd4565b9350613c4060808901613bd4565b925060a08801356001600160401b03811115613c5b57600080fd5b613c678a828b01613aca565b989b979a50959850939692959293505050565b600081518084526020808501945080840160005b83811015613cb35781516001600160a01b031687529582019590820190600101613c8e565b509495945050505050565b602081526000611ea36020830184613c7a565b60008060008060808587031215613ce757600080fd5b84359350613cf760208601613bd4565b9250613d0560408601613bd4565b9150613d1360608601613bd4565b905092959194509250565b60008060008060408587031215613d3457600080fd5b84356001600160401b0380821115613d4b57600080fd5b613d5788838901613aca565b90965094506020870135915080821115613d7057600080fd5b50613d7d87828801613aca565b95989497509550505050565b600080600060408486031215613d9e57600080fd5b83356001600160401b03811115613db457600080fd5b613dc086828701613aca565b909790965060209590950135949350505050565b600080600060608486031215613de957600080fd5b613df284613a93565b95602085013595506040909401359392505050565b634e487b7160e01b600052604160045260246000fd5b803560ff81168114613aaa57600080fd5b60008060008060008060c08789031215613e4757600080fd5b86356001600160401b0380821115613e5e57600080fd5b818901915089601f830112613e7257600080fd5b8135602082821115613e8657613e86613e07565b8160051b604051601f19603f83011681018181108682111715613eab57613eab613e07565b60405292835281830193508481018201928d841115613ec957600080fd5b948201945b83861015613eee57613edf86613a93565b85529482019493820193613ece565b9a50613efd90508b8201613e1d565b985050505050613f0f60408801613bd4565b9350613f1d60608801613bd4565b9250613f2b60808801613bd4565b9150613f3960a08801613bd4565b90509295509295509295565b600080600060608486031215613f5a57600080fd5b613f6384613bd4565b9250613f7160208501613bd4565b9150613f7f60408501613bd4565b90509250925092565b60008060008060008060c08789031215613fa157600080fd5b613faa87613e1d565b9550613fb860208801613e1d565b9450613f0f60408801613bd4565b60008060208385031215613fd957600080fd5b82356001600160401b03811115613fef57600080fd5b613ffb85828601613aca565b90969095509350505050565b6020808252825182820152828101516060604084015280516080840181905260009291820190839060a08601905b8083101561405e5783516001600160a01b03168252928401926001929092019190840190614035565b506040870151868203601f190160608801528051808352908501935090840191506000905b808210156140a35783518352928401929184019160019190910190614083565b50909695505050505050565b634e487b7160e01b600052602160045260246000fd5b86815260006001600160401b0380881660208401528087166040840152808616606084015280851660808401525060c060a083015261410760c0830184613c7a565b98975050505050505050565b634e487b7160e01b600052601160045260246000fd5b6001600160401b0381811683821601908082111561414957614149614113565b5092915050565b60408152600061417a60408301600a81526963616e6469646174657360b01b602082015260400190565b8281036020938401526013815272746f6f206d616e792063616e6469646174657360681b928101929092525060400190565b6040815260006141d660408301600a81526963616e6469646174657360b01b602082015260400190565b828103602093840152601981527f6c656e677468206d757374206d6174636820616d6f756e747300000000000000928101929092525060400190565b8183526000602080850194508260005b85811015613cb3576001600160a01b0361423b83613a93565b1687529582019590820190600101614222565b838152604060208201526000610c58604083018486614212565b88815260018060a01b038816602082015286604082015285606082015260c06080820152600061429c60c083018688614212565b82810360a08401528381526001600160fb1b038411156142bb57600080fd5b8360051b80866020840137016020019a9950505050505050505050565b6040815260006142ec604083018587614212565b9050826020830152949350505050565b6001600160401b0381811683821602808216919082811461431f5761431f614113565b505092915050565b808201808211156109fc576109fc614113565b6001600160401b0382811682821603908082111561414957614149614113565b60006001820161436c5761436c614113565b5060010190565b634e487b7160e01b600052603260045260246000fd5b60005b838110156143a457818101518382015260200161438c565b50506000910152565b600082516143bf818460208701614389565b9190910192915050565b600081518084526143e1816020860160208601614389565b601f01601f19169290920160200192915050565b600060406001600160401b038516835260208181850152845160a08386015261442160e08601826143c9565b905081860151603f198087840301606088015261443e83836143c9565b88860151888203830160808a01528051808352908601945060009350908501905b8084101561449157845180516001600160a01b031683528601518683015293850193600193909301929086019061445f565b5060608901516001600160a01b031660a08901526080890151888203830160c08a015295506144c081876143c9565b9a9950505050505050505050565b6000602082840312156144e057600080fd5b5051919050565b818103818111156109fc576109fc614113565b634e487b7160e01b600052603160045260246000fd5b600060ff821660ff810361452657614526614113565b6001019291505056fea2646970667358221220904f525fa64f446a7dfc7bf076693a29ec93e5dbecb91e3911ad02d1ccad55f564736f6c63430008110033",
  "linkReferences": {},
  "deployedLinkReferences": {}
}