{
  "_format": "hh-sol-artifact-1",
  "contractName": "ElectionModule",
  "sourceName": "contracts/modules/core/ElectionModule.sol",
  "abi": [
    {
      "inputs": [],
      "name": "AlreadyACouncilMember",
      "type": "error"
    },
    {
      "inputs": [],
      "name": "AlreadyNominated",
      "type": "error"
    },
    {
      "inputs": [],
      "name": "ChangesCurrentPeriod",
      "type": "error"
    },
    {
      "inputs": [
        {
          "internalType": "address",
          "name": "duplicatedCandidate",
          "type": "address"
        }
      ],
      "name": "DuplicateCandidates",
      "type": "error"
    },
    {
      "inputs": [],
      "name": "ElectionAlreadyEvaluated",
      "type": "error"
    },
    {
      "inputs": [],
      "name": "ElectionNotEvaluated",
      "type": "error"
    },
    {
      "inputs": [],
      "name": "EmptyArray",
      "type": "error"
    },
    {
      "inputs": [
        {
          "internalType": "uint256",
          "name": "requiredAmount",
          "type": "uint256"
        },
        {
          "internalType": "uint256",
          "name": "availableAmount",
          "type": "uint256"
        }
      ],
      "name": "InsufficientCcipFee",
      "type": "error"
    },
    {
      "inputs": [],
      "name": "InvalidBallot",
      "type": "error"
    },
    {
      "inputs": [],
      "name": "InvalidElectionSettings",
      "type": "error"
    },
    {
      "inputs": [
        {
          "internalType": "uint256",
          "name": "code",
          "type": "uint256"
        },
        {
          "internalType": "uint64",
          "name": "v1",
          "type": "uint64"
        },
        {
          "internalType": "uint64",
          "name": "v2",
          "type": "uint64"
        }
      ],
      "name": "InvalidEpochConfiguration",
      "type": "error"
    },
    {
      "inputs": [
        {
          "internalType": "string",
          "name": "parameter",
          "type": "string"
        },
        {
          "internalType": "string",
          "name": "reason",
          "type": "string"
        }
      ],
      "name": "InvalidParameter",
      "type": "error"
    },
    {
      "inputs": [
        {
          "internalType": "bytes32",
          "name": "expected",
          "type": "bytes32"
        },
        {
          "internalType": "bytes32",
          "name": "actual",
          "type": "bytes32"
        }
      ],
      "name": "MismatchAssociatedSystemKind",
      "type": "error"
    },
    {
      "inputs": [],
      "name": "NoCandidates",
      "type": "error"
    },
    {
      "inputs": [
        {
          "internalType": "address",
          "name": "sender",
          "type": "address"
        },
        {
          "internalType": "uint256",
          "name": "currentEpoch",
          "type": "uint256"
        }
      ],
      "name": "NoVotingPower",
      "type": "error"
    },
    {
      "inputs": [],
      "name": "NotACouncilMember",
      "type": "error"
    },
    {
      "inputs": [],
      "name": "NotCallableInCurrentPeriod",
      "type": "error"
    },
    {
      "inputs": [],
      "name": "NotNominated",
      "type": "error"
    },
    {
      "inputs": [],
      "name": "OverflowUint256ToUint64",
      "type": "error"
    },
    {
      "inputs": [],
      "name": "PositionOutOfBounds",
      "type": "error"
    },
    {
      "inputs": [
        {
          "internalType": "bool",
          "name": "",
          "type": "bool"
        }
      ],
      "name": "Test",
      "type": "error"
    },
    {
      "inputs": [],
      "name": "TooManyMembers",
      "type": "error"
    },
    {
      "inputs": [
        {
          "internalType": "address",
          "name": "addr",
          "type": "address"
        }
      ],
      "name": "Unauthorized",
      "type": "error"
    },
    {
      "inputs": [
        {
          "internalType": "uint64",
          "name": "",
          "type": "uint64"
        }
      ],
      "name": "UnsupportedNetwork",
      "type": "error"
    },
    {
      "inputs": [],
      "name": "ValueAlreadyInSet",
      "type": "error"
    },
    {
      "inputs": [],
      "name": "ValueNotInSet",
      "type": "error"
    },
    {
      "anonymous": false,
      "inputs": [
        {
          "indexed": true,
          "internalType": "address",
          "name": "candidate",
          "type": "address"
        },
        {
          "indexed": true,
          "internalType": "uint256",
          "name": "epochId",
          "type": "uint256"
        }
      ],
      "name": "CandidateNominated",
      "type": "event"
    },
    {
      "anonymous": false,
      "inputs": [
        {
          "indexed": true,
          "internalType": "address",
          "name": "member",
          "type": "address"
        },
        {
          "indexed": true,
          "internalType": "uint256",
          "name": "epochIndex",
          "type": "uint256"
        }
      ],
      "name": "CouncilMemberAdded",
      "type": "event"
    },
    {
      "anonymous": false,
      "inputs": [
        {
          "indexed": true,
          "internalType": "address",
          "name": "member",
          "type": "address"
        },
        {
          "indexed": true,
          "internalType": "uint256",
          "name": "epochIndex",
          "type": "uint256"
        }
      ],
      "name": "CouncilMemberRemoved",
      "type": "event"
    },
    {
      "anonymous": false,
      "inputs": [
        {
          "indexed": false,
          "internalType": "address[]",
          "name": "dismissedMembers",
          "type": "address[]"
        },
        {
          "indexed": false,
          "internalType": "uint256",
          "name": "epochId",
          "type": "uint256"
        }
      ],
      "name": "CouncilMembersDismissed",
      "type": "event"
    },
    {
      "anonymous": false,
      "inputs": [
        {
          "indexed": true,
          "internalType": "uint256",
          "name": "epochId",
          "type": "uint256"
        },
        {
          "indexed": false,
          "internalType": "uint256",
          "name": "numEvaluatedBallots",
          "type": "uint256"
        },
        {
          "indexed": false,
          "internalType": "uint256",
          "name": "totalBallots",
          "type": "uint256"
        }
      ],
      "name": "ElectionBatchEvaluated",
      "type": "event"
    },
    {
      "anonymous": false,
      "inputs": [
        {
          "indexed": true,
          "internalType": "uint256",
          "name": "epochId",
          "type": "uint256"
        },
        {
          "indexed": false,
          "internalType": "uint256",
          "name": "ballotCount",
          "type": "uint256"
        }
      ],
      "name": "ElectionEvaluated",
      "type": "event"
    },
    {
      "anonymous": false,
      "inputs": [],
      "name": "ElectionModuleInitialized",
      "type": "event"
    },
    {
      "anonymous": false,
      "inputs": [
        {
          "indexed": true,
          "internalType": "uint256",
          "name": "epochId",
          "type": "uint256"
        }
      ],
      "name": "EmergencyElectionStarted",
      "type": "event"
    },
    {
      "anonymous": false,
      "inputs": [
        {
          "indexed": true,
          "internalType": "uint64",
          "name": "epochId",
          "type": "uint64"
        },
        {
          "indexed": false,
          "internalType": "uint64",
          "name": "startDate",
          "type": "uint64"
        },
        {
          "indexed": false,
          "internalType": "uint64",
          "name": "endDate",
          "type": "uint64"
        }
      ],
      "name": "EpochScheduleUpdated",
      "type": "event"
    },
    {
      "anonymous": false,
      "inputs": [
        {
          "indexed": true,
          "internalType": "uint256",
          "name": "epochId",
          "type": "uint256"
        }
      ],
      "name": "EpochStarted",
      "type": "event"
    },
    {
      "anonymous": false,
      "inputs": [
        {
          "indexed": true,
          "internalType": "address",
          "name": "candidate",
          "type": "address"
        },
        {
          "indexed": true,
          "internalType": "uint256",
          "name": "epochId",
          "type": "uint256"
        }
      ],
      "name": "NominationWithdrawn",
      "type": "event"
    },
    {
      "anonymous": false,
      "inputs": [
        {
          "indexed": true,
          "internalType": "address",
          "name": "voter",
          "type": "address"
        },
        {
          "indexed": true,
          "internalType": "uint256",
          "name": "chainId",
          "type": "uint256"
        },
        {
          "indexed": true,
          "internalType": "uint256",
          "name": "epochId",
          "type": "uint256"
        },
        {
          "indexed": false,
          "internalType": "uint256",
          "name": "votingPower",
          "type": "uint256"
        }
      ],
      "name": "VoteRecorded",
      "type": "event"
    },
    {
      "inputs": [
        {
          "internalType": "uint256",
          "name": "epochIndex",
          "type": "uint256"
        },
        {
          "internalType": "address",
          "name": "voter",
          "type": "address"
        },
        {
          "internalType": "uint256",
          "name": "votingPower",
          "type": "uint256"
        },
        {
          "internalType": "uint256",
          "name": "chainId",
          "type": "uint256"
        },
        {
          "internalType": "address[]",
          "name": "candidates",
          "type": "address[]"
        },
        {
          "internalType": "uint256[]",
          "name": "amounts",
          "type": "uint256[]"
        }
      ],
      "name": "_recvCast",
      "outputs": [],
      "stateMutability": "nonpayable",
      "type": "function"
    },
    {
      "inputs": [
        {
          "internalType": "address[]",
          "name": "membersToDismiss",
          "type": "address[]"
        },
        {
          "internalType": "uint256",
          "name": "epochIndex",
          "type": "uint256"
        }
      ],
      "name": "_recvDismissMembers",
      "outputs": [],
      "stateMutability": "nonpayable",
      "type": "function"
    },
    {
      "inputs": [
        {
          "internalType": "uint256",
          "name": "epochIndex",
          "type": "uint256"
        },
        {
          "internalType": "uint64",
          "name": "epochStartDate",
          "type": "uint64"
        },
        {
          "internalType": "uint64",
          "name": "nominationPeriodStartDate",
          "type": "uint64"
        },
        {
          "internalType": "uint64",
          "name": "votingPeriodStartDate",
          "type": "uint64"
        },
        {
          "internalType": "uint64",
          "name": "epochEndDate",
          "type": "uint64"
        },
        {
          "internalType": "address[]",
          "name": "councilMembers",
          "type": "address[]"
        }
      ],
      "name": "_recvInitElectionModuleSatellite",
      "outputs": [],
      "stateMutability": "nonpayable",
      "type": "function"
    },
    {
      "inputs": [
        {
          "internalType": "uint256",
          "name": "epochIndex",
          "type": "uint256"
        },
        {
          "internalType": "uint64",
          "name": "epochStartDate",
          "type": "uint64"
        },
        {
          "internalType": "uint64",
          "name": "nominationPeriodStartDate",
          "type": "uint64"
        },
        {
          "internalType": "uint64",
          "name": "votingPeriodStartDate",
          "type": "uint64"
        },
        {
          "internalType": "uint64",
          "name": "epochEndDate",
          "type": "uint64"
        },
        {
          "internalType": "address[]",
          "name": "councilMembers",
          "type": "address[]"
        }
      ],
      "name": "_recvResolve",
      "outputs": [],
      "stateMutability": "nonpayable",
      "type": "function"
    },
    {
      "inputs": [
        {
          "internalType": "uint256",
          "name": "epochIndex",
          "type": "uint256"
        },
        {
          "internalType": "uint64",
          "name": "nominationPeriodStartDate",
          "type": "uint64"
        },
        {
          "internalType": "uint64",
          "name": "votingPeriodStartDate",
          "type": "uint64"
        },
        {
          "internalType": "uint64",
          "name": "epochEndDate",
          "type": "uint64"
        }
      ],
      "name": "_recvTweakEpochSchedule",
      "outputs": [],
      "stateMutability": "nonpayable",
      "type": "function"
    },
    {
      "inputs": [
        {
          "internalType": "address[]",
          "name": "candidates",
          "type": "address[]"
        },
        {
          "internalType": "uint256[]",
          "name": "amounts",
          "type": "uint256[]"
        }
      ],
      "name": "cast",
      "outputs": [],
      "stateMutability": "payable",
      "type": "function"
    },
    {
      "inputs": [
        {
          "internalType": "address[]",
          "name": "membersToDismiss",
          "type": "address[]"
        }
      ],
      "name": "dismissMembers",
      "outputs": [],
      "stateMutability": "payable",
      "type": "function"
    },
    {
      "inputs": [
        {
          "internalType": "uint256",
          "name": "numBallots",
          "type": "uint256"
        }
      ],
      "name": "evaluate",
      "outputs": [],
      "stateMutability": "nonpayable",
      "type": "function"
    },
    {
      "inputs": [
        {
          "internalType": "address",
          "name": "voter",
          "type": "address"
        },
        {
          "internalType": "uint256",
          "name": "chainId",
          "type": "uint256"
        },
        {
          "internalType": "uint256",
          "name": "electionId",
          "type": "uint256"
        }
      ],
      "name": "getBallot",
      "outputs": [
        {
          "components": [
            {
              "internalType": "uint256",
              "name": "votingPower",
              "type": "uint256"
            },
            {
              "internalType": "address[]",
              "name": "votedCandidates",
              "type": "address[]"
            },
            {
              "internalType": "uint256[]",
              "name": "amounts",
              "type": "uint256[]"
            }
          ],
          "internalType": "struct Ballot.Data",
          "name": "",
          "type": "tuple"
        }
      ],
      "stateMutability": "pure",
      "type": "function"
    },
    {
      "inputs": [
        {
          "internalType": "address",
          "name": "voter",
          "type": "address"
        },
        {
          "internalType": "uint256",
          "name": "chainId",
          "type": "uint256"
        },
        {
          "internalType": "uint256",
          "name": "electionId",
          "type": "uint256"
        }
      ],
      "name": "getBallotCandidates",
      "outputs": [
        {
          "internalType": "address[]",
          "name": "",
          "type": "address[]"
        }
      ],
      "stateMutability": "view",
      "type": "function"
    },
    {
      "inputs": [
        {
          "internalType": "address",
          "name": "candidate",
          "type": "address"
        }
      ],
      "name": "getCandidateVotes",
      "outputs": [
        {
          "internalType": "uint256",
          "name": "",
          "type": "uint256"
        }
      ],
      "stateMutability": "view",
      "type": "function"
    },
    {
      "inputs": [],
      "name": "getCouncilMembers",
      "outputs": [
        {
          "internalType": "address[]",
          "name": "",
          "type": "address[]"
        }
      ],
      "stateMutability": "view",
      "type": "function"
    },
    {
      "inputs": [],
      "name": "getCouncilToken",
      "outputs": [
        {
          "internalType": "address",
          "name": "",
          "type": "address"
        }
      ],
      "stateMutability": "view",
      "type": "function"
    },
    {
      "inputs": [],
      "name": "getCurrentPeriod",
      "outputs": [
        {
          "internalType": "uint256",
          "name": "",
          "type": "uint256"
        }
      ],
      "stateMutability": "view",
      "type": "function"
    },
    {
      "inputs": [],
      "name": "getElectionSettings",
      "outputs": [
        {
          "components": [
            {
              "internalType": "uint8",
              "name": "epochSeatCount",
              "type": "uint8"
            },
            {
              "internalType": "uint8",
              "name": "minimumActiveMembers",
              "type": "uint8"
            },
            {
              "internalType": "uint64",
              "name": "epochDuration",
              "type": "uint64"
            },
            {
              "internalType": "uint64",
              "name": "nominationPeriodDuration",
              "type": "uint64"
            },
            {
              "internalType": "uint64",
              "name": "votingPeriodDuration",
              "type": "uint64"
            },
            {
              "internalType": "uint64",
              "name": "maxDateAdjustmentTolerance",
              "type": "uint64"
            }
          ],
          "internalType": "struct ElectionSettings.Data",
          "name": "settings",
          "type": "tuple"
        }
      ],
      "stateMutability": "view",
      "type": "function"
    },
    {
      "inputs": [],
      "name": "getElectionWinners",
      "outputs": [
        {
          "internalType": "address[]",
          "name": "",
          "type": "address[]"
        }
      ],
      "stateMutability": "view",
      "type": "function"
    },
    {
      "inputs": [],
      "name": "getEpochIndex",
      "outputs": [
        {
          "internalType": "uint256",
          "name": "",
          "type": "uint256"
        }
      ],
      "stateMutability": "view",
      "type": "function"
    },
    {
      "inputs": [],
      "name": "getEpochSchedule",
      "outputs": [
        {
          "components": [
            {
              "internalType": "uint64",
              "name": "startDate",
              "type": "uint64"
            },
            {
              "internalType": "uint64",
              "name": "nominationPeriodStartDate",
              "type": "uint64"
            },
            {
              "internalType": "uint64",
              "name": "votingPeriodStartDate",
              "type": "uint64"
            },
            {
              "internalType": "uint64",
              "name": "endDate",
              "type": "uint64"
            }
          ],
          "internalType": "struct Epoch.Data",
          "name": "epoch",
          "type": "tuple"
        }
      ],
      "stateMutability": "view",
      "type": "function"
    },
    {
      "inputs": [],
      "name": "getNextElectionSettings",
      "outputs": [
        {
          "components": [
            {
              "internalType": "uint8",
              "name": "epochSeatCount",
              "type": "uint8"
            },
            {
              "internalType": "uint8",
              "name": "minimumActiveMembers",
              "type": "uint8"
            },
            {
              "internalType": "uint64",
              "name": "epochDuration",
              "type": "uint64"
            },
            {
              "internalType": "uint64",
              "name": "nominationPeriodDuration",
              "type": "uint64"
            },
            {
              "internalType": "uint64",
              "name": "votingPeriodDuration",
              "type": "uint64"
            },
            {
              "internalType": "uint64",
              "name": "maxDateAdjustmentTolerance",
              "type": "uint64"
            }
          ],
          "internalType": "struct ElectionSettings.Data",
          "name": "settings",
          "type": "tuple"
        }
      ],
      "stateMutability": "view",
      "type": "function"
    },
    {
      "inputs": [],
      "name": "getNominees",
      "outputs": [
        {
          "internalType": "address[]",
          "name": "",
          "type": "address[]"
        }
      ],
      "stateMutability": "view",
      "type": "function"
    },
    {
      "inputs": [
        {
          "internalType": "address",
          "name": "user",
          "type": "address"
        },
        {
          "internalType": "uint256",
          "name": "chainId",
          "type": "uint256"
        },
        {
          "internalType": "uint256",
          "name": "electionId",
          "type": "uint256"
        }
      ],
      "name": "getVotePower",
      "outputs": [
        {
          "internalType": "uint256",
          "name": "",
          "type": "uint256"
        }
      ],
      "stateMutability": "view",
      "type": "function"
    },
    {
      "inputs": [
        {
          "internalType": "address",
          "name": "user",
          "type": "address"
        },
        {
          "internalType": "uint256",
          "name": "chainId",
          "type": "uint256"
        }
      ],
      "name": "hasVoted",
      "outputs": [
        {
          "internalType": "bool",
          "name": "",
          "type": "bool"
        }
      ],
      "stateMutability": "view",
      "type": "function"
    },
    {
      "inputs": [
        {
          "internalType": "uint256",
          "name": "chainId",
          "type": "uint256"
        }
      ],
      "name": "initElectionModuleSatellite",
      "outputs": [],
      "stateMutability": "payable",
      "type": "function"
    },
    {
      "inputs": [
        {
          "internalType": "address[]",
          "name": "initialCouncil",
          "type": "address[]"
        },
        {
          "internalType": "uint8",
          "name": "minimumActiveMembers",
          "type": "uint8"
        },
        {
          "internalType": "uint64",
          "name": "initialNominationPeriodStartDate",
          "type": "uint64"
        },
        {
          "internalType": "uint64",
          "name": "administrationPeriodDuration",
          "type": "uint64"
        },
        {
          "internalType": "uint64",
          "name": "nominationPeriodDuration",
          "type": "uint64"
        },
        {
          "internalType": "uint64",
          "name": "votingPeriodDuration",
          "type": "uint64"
        }
      ],
      "name": "initOrUpdateElectionSettings",
      "outputs": [],
      "stateMutability": "nonpayable",
      "type": "function"
    },
    {
      "inputs": [],
      "name": "isElectionEvaluated",
      "outputs": [
        {
          "internalType": "bool",
          "name": "",
          "type": "bool"
        }
      ],
      "stateMutability": "view",
      "type": "function"
    },
    {
      "inputs": [],
      "name": "isElectionModuleInitialized",
      "outputs": [
        {
          "internalType": "bool",
          "name": "",
          "type": "bool"
        }
      ],
      "stateMutability": "view",
      "type": "function"
    },
    {
      "inputs": [
        {
          "internalType": "address",
          "name": "candidate",
          "type": "address"
        }
      ],
      "name": "isNominated",
      "outputs": [
        {
          "internalType": "bool",
          "name": "",
          "type": "bool"
        }
      ],
      "stateMutability": "view",
      "type": "function"
    },
    {
      "inputs": [],
      "name": "nominate",
      "outputs": [],
      "stateMutability": "nonpayable",
      "type": "function"
    },
    {
      "inputs": [],
      "name": "resolve",
      "outputs": [],
      "stateMutability": "payable",
      "type": "function"
    },
    {
      "inputs": [
        {
          "internalType": "uint8",
          "name": "epochSeatCount",
          "type": "uint8"
        },
        {
          "internalType": "uint8",
          "name": "minimumActiveMembers",
          "type": "uint8"
        },
        {
          "internalType": "uint64",
          "name": "epochDuration",
          "type": "uint64"
        },
        {
          "internalType": "uint64",
          "name": "nominationPeriodDuration",
          "type": "uint64"
        },
        {
          "internalType": "uint64",
          "name": "votingPeriodDuration",
          "type": "uint64"
        },
        {
          "internalType": "uint64",
          "name": "maxDateAdjustmentTolerance",
          "type": "uint64"
        }
      ],
      "name": "setNextElectionSettings",
      "outputs": [],
      "stateMutability": "nonpayable",
      "type": "function"
    },
    {
      "inputs": [
        {
          "internalType": "uint64",
          "name": "newNominationPeriodStartDate",
          "type": "uint64"
        },
        {
          "internalType": "uint64",
          "name": "newVotingPeriodStartDate",
          "type": "uint64"
        },
        {
          "internalType": "uint64",
          "name": "newEpochEndDate",
          "type": "uint64"
        }
      ],
      "name": "tweakEpochSchedule",
      "outputs": [],
      "stateMutability": "nonpayable",
      "type": "function"
    },
    {
      "inputs": [],
      "name": "withdrawNomination",
      "outputs": [],
      "stateMutability": "nonpayable",
      "type": "function"
    }
  ],
  "bytecode": "0x608060405234801561001057600080fd5b50614549806100206000396000f3fe6080604052600436106101e35760003560e01c80639636f67c11610102578063d82f25f011610095578063e549a29011610064578063e549a290146105c5578063f2516dbf146105da578063fcd7e1d7146105ef578063ffe7f6431461060457600080fd5b8063d82f25f0146104f6578063e1425cf514610516578063e327b58514610590578063e4220d1e146105a557600080fd5b8063aede2fa5116100d1578063aede2fa514610472578063c07de0d31461049f578063c5798523146104cc578063d11801cf146104e157600080fd5b80639636f67c146104175780639a25eaf31461042c578063a31d297e1461043f578063a90486321461045257600080fd5b8063606a6b761161017a578063881a2c6411610149578063881a2c64146103975780638a39030a146103b75780638f701997146103d757806391baec87146103f757600080fd5b8063606a6b76146103225780636acac61f1461034457806374cc3e0d146103645780637b3d63e01461037757600080fd5b80633d32f239116101b65780633d32f2391461026a5780633f77ec6e146102c257806342545825146102e2578063464d43321461030257600080fd5b8063086146d2146101e85780632810e1d614610210578063371432331461021a5780633a3e6c811461023a575b600080fd5b3480156101f457600080fd5b506101fd610619565b6040519081526020015b60405180910390f35b610218610649565b005b34801561022657600080fd5b50610218610235366004613a78565b6107c6565b34801561024657600080fd5b5061025a610255366004613aad565b6109dd565b6040519015158152602001610207565b34801561027657600080fd5b5061027f610a02565b604051610207919081516001600160401b039081168252602080840151821690830152604080840151821690830152606092830151169181019190915260800190565b3480156102ce57600080fd5b506102186102dd366004613b0c565b610a7a565b3480156102ee57600080fd5b5061025a6102fd366004613ba8565b610c22565b34801561030e57600080fd5b5061021861031d366004613be9565b610c5f565b34801561032e57600080fd5b50610337610caa565b6040516102079190613cbc565b34801561035057600080fd5b5061021861035f366004613ccf565b610cbf565b610218610372366004613d1c565b610cee565b34801561038357600080fd5b50610218610392366004613d87565b610de6565b3480156103a357600080fd5b506103376103b2366004613dd2565b610e6c565b3480156103c357600080fd5b506102186103d2366004613e2c565b610ede565b3480156103e357600080fd5b506102186103f2366004613f43565b610fa1565b34801561040357600080fd5b50610218610412366004613f86565b6110cd565b34801561042357600080fd5b5061033761113b565b61021861043a366004613fc4565b611153565b61021861044d366004613a78565b61124d565b34801561045e57600080fd5b506101fd61046d366004613dd2565b61135e565b34801561047e57600080fd5b5061049261048d366004613dd2565b611376565b6040516102079190614005565b3480156104ab57600080fd5b506104b461147d565b6040516001600160a01b039091168152602001610207565b3480156104d857600080fd5b5061025a611496565b3480156104ed57600080fd5b506102186114a0565b34801561050257600080fd5b506101fd610511366004613aad565b61153d565b34801561052257600080fd5b5061052b61156c565b6040516102079190600060c08201905060ff835116825260ff602084015116602083015260408301516001600160401b0380821660408501528060608601511660608501528060808601511660808501528060a08601511660a0850152505092915050565b34801561059c57600080fd5b5061025a611610565b3480156105b157600080fd5b506102186105c0366004613be9565b611626565b3480156105d157600080fd5b5061052b61163d565b3480156105e657600080fd5b5061033761167a565b3480156105fb57600080fd5b50610218611692565b34801561061057600080fd5b506101fd611732565b600061063361062e610629611745565b6117a7565b6117b6565b6003811115610644576106446140ad565b905090565b610653600361183d565b600061065d611745565b9050600061066a82611895565b805490915060ff1661068f57604051634e6a146760e11b815260040160405180910390fd5b600061069a836118a4565b905060006106a7846118b3565b90506106b381836118ce565b60006106be82611a1c565b80516020820151604083015160608401519394506106e0938993929190611ae5565b6106e985611d52565b5060006106f4611d70565b905061078261070282611dc1565b63e4220d1e60e01b8860010154856000015186602001518760400151886060015161072f8d600401611e94565b604051602401610744969594939291906140c3565b60408051601f198184030181529190526020810180516001600160e01b03166001600160e01b031990931692909217909152839190620186a0611ea8565b50845461ff00191661010017855560018601546040517f968139de8ea4f6dca3f75fdde04ee69529bde77210bb1cc0b58e954fd3d9b61990600090a2505050505050565b6107d0600361183d565b60006107da611745565b905060006107e782611895565b905060006107f4836117a7565b6040805160808101825291546001600160401b038082168452600160401b820481166020850152600160801b8204811692840192909252600160c01b9004166060820152600184015490915060009061084c9061219d565b8054909150610100900460ff1661086560028501611e94565b5110156108fa576000610876611d70565b90506108f361088482611dc1565b636acac61f60e01b8760010154866020015187604001518760000160129054906101000a90046001600160401b031689606001516108c29190614127565b60405160248101949094526001600160401b039283166044850152908216606484015216608482015260a401610744565b50506109d6565b825460ff161561091d5760405163fd22975360e01b815260040160405180910390fd5b61092685612214565b60018401546000610938600686015490565b9050808560010154101561098b576001850154604080519182526020820183905283917f0b1080b1dbbb0d094f410f8b1b6a2633bf79116996b40b806654748011b1df0b910160405180910390a26109d3565b845460ff1916600117855560405182907f7c757193e7e9b337037d5688d06fac74a0d837d516d08798bf90bc06d4acee90906109ca9084815260200190565b60405180910390a25b50505b5050505050565b60006109fc826109f36109ee611745565b611895565b60020190612282565b92915050565b604080516080810182526000808252602082018190529181018290526060810191909152610a31610629611745565b6040805160808101825291546001600160401b038082168452600160401b820481166020850152600160801b8204811692840192909252600160c01b9004166060820152919050565b610a826122a4565b610a8c600261183d565b6001831115610ab757604051634bab873760e11b8152600401610aae9061414e565b60405180910390fd5b828114610ad757604051634bab873760e11b8152600401610aae906141aa565b6000610ae1611745565b90506000610aee82611895565b60018301549091508a8114610b5f5760408051634bab873760e11b81526004810191909152600a6044820152690cae0dec6d092dcc8caf60b31b60648201526080602482015260136084820152720d2dcecc2d8d2c840cae0dec6d040d2dcc8caf606b1b60a482015260c401610aae565b610b6987876122ea565b6000610b7a84600101548c8b612436565b9050610b8a6001820189896139c9565b50610b99600282018787613a28565b50898155610ba6816124ac565b60008181526007840160205260409020548190610bca57610bca60068501826124d5565b828a8d6001600160a01b03167f2c86ee79072bae762d098212f321a5a8c83b324a6c826ee0e814e72f8fd2bf068560000154604051610c0b91815260200190565b60405180910390a450505050505050505050505050565b600080610c2d611745565b90506000610c4082600101548686612436565b805490915015801590610c565750600181015415155b95945050505050565b610c676122a4565b6000610c71611745565b9050610c7b61252e565b15610c8657506109d3565b805460ff19166001178155610ca088888888888888612538565b5050505050505050565b6060610644610cb76125b0565b600101611e94565b610cc76122a4565b6000610cd285612603565b80549091506109d69082906001600160401b031686868661264e565b610cf8600261183d565b6000610d026126b8565b90506000610d0e611745565b6001015490506000610d21828446612436565b8054909150600003610d5857604051638102b74960e01b81526001600160a01b038416600482015260248101839052604401610aae565b6000610d62611d70565b9050610ddb610d728260006126f5565b633f77ec6e60e01b85878660000154468e8e8e8e604051602401610d9d98979695949392919061424c565b60408051601f198184030181529190526020810180516001600160e01b03166001600160e01b031990931692909217909152839190620186a0612720565b505050505050505050565b610dee6122a4565b610e2c83838080602002602001604051908101604052809392919081815260200183836020028082843760009201919091525085925061278f915050565b7f5c9cb9436a66566a014c694eb6cd67ff16b01deb8b210630a0a0d894a3a7035f838383604051610e5f939291906142bc565b60405180910390a1505050565b6060610e79828585612436565b600101805480602002602001604051908101604052809291908181526020018280548015610ed057602002820191906000526020600020905b81546001600160a01b03168152600190910190602001808311610eb2575b505050505090509392505050565b610ee66127f9565b855160ff1015610f0957604051635659186560e01b815260040160405180910390fd5b6000610f13611745565b9050610f2284620151806142e0565b9350610f3183620151806142e0565b9250610f4082620151806142e0565b8751909250600083610f528688614127565b610f5c9190614127565b90506000610f69846118b3565b9050610f7d81848b858a8a6203f480612834565b610f8561252e565b610f9557610f9584828c8b61295f565b50505050505050505050565b610fa96127f9565b610fb3600061183d565b6000610fbd611745565b90506000610fca826117a7565b6040805160808101825282546001600160401b039081168252888116602083015287811692820192909252908516606082015290915061100b838383612a86565b6000611015611d70565b905061107061102382611dc1565b600186015460208501516040808701516060880151915160248101949094526001600160401b03928316604485015282166064840152166084820152636acac61f60e01b9060a401610744565b5081602001516001600160401b03167fd289c6d0460c72f1845f45057a36c0e80be8a0d367aebb7675fe64cdab632964836040015184606001516040516109ca9291906001600160401b0392831681529116602082015260400190565b6110d56127f9565b6110df600061183d565b61113386866110f187620151806142e0565b6110fe87620151806142e0565b61110b87620151806142e0565b61111887620151806142e0565b611128611123611745565b6118b3565b959493929190612834565b505050505050565b606061064461114b6109ee611745565b600201611e94565b61115b6127f9565b6000611165611745565b90506000611172826117a7565b9050600061117e611d70565b90506111ad61118c82611dc1565b60018501546040516303d9eb1f60e51b91610744918a918a916024016142bc565b5060006111b86125b0565b905060006111c5846117b6565b60038111156111d6576111d66140ad565b146111e357505050505050565b6111ec846118a4565b54610100900460ff1661120160018301612bdd565b1061120e57505050505050565b61121784612be7565b60018401546040517f9c2bae1456357809a1c870e1e63679a1f7972f8b45dcc26b64338cd925c0857290600090a2505050505050565b6112556127f9565b600061125f611d70565b905061126b8183612c6e565b60006112756125b0565b90506000611281611745565b9050600061128e826117a7565b6040805160808101825291546001600160401b038082168452600160401b820481166020850152600160801b8204811692840192909252600160c01b900416606082015290506111336112e086612cad565b6001808501548451602086015160408701516060880151632326a19960e11b9561130b908c01611e94565b604051602401611320969594939291906140c3565b60408051601f198184030181529190526020810180516001600160e01b03166001600160e01b031990931692909217909152869190620186a0612720565b60008061136c838686612436565b5495945050505050565b61139a60405180606001604052806000815260200160608152602001606081525090565b6113a5828585612436565b604051806060016040529081600082015481526020016001820180548060200260200160405190810160405280929190818152602001828054801561141357602002820191906000526020600020905b81546001600160a01b031681526001909101906020018083116113f5575b505050505081526020016002820180548060200260200160405190810160405280929190818152602001828054801561146b57602002820191906000526020600020905b815481526020019060010190808311611457575b50505050508152505090509392505050565b60006114876125b0565b546001600160a01b0316919050565b600061064461252e565b60006114ad6109ee611745565b60020190506114bc600161183d565b60006114c66126b8565b90506114d28282612282565b6114ef57604051639ceae3db60e01b815260040160405180910390fd5b6114f98282612cdb565b611501611745565b600101546040516001600160a01b038316907fd4e9073cc1c197d638f4da96c7cf415bc573b6f600ccba01627c416267d9dd3b90600090a35050565b600061154a6109ee611745565b6001600160a01b03909216600090815260089290920160205250604090205490565b6040805160c081018252600080825260208201819052918101829052606081018290526080810182905260a08101919091526115ae6115a9611745565b6118a4565b6040805160c081018252825460ff808216835261010082041660208301526001600160401b03620100008204811693830193909352600160501b810483166060830152600160901b9004821660808201526001909201541660a0820152919050565b600061161d6109ee611745565b5460ff16919050565b61162e6122a4565b6109d387878787878787612538565b6040805160c081018252600080825260208201819052918101829052606081018290526080810182905260a08101919091526115ae611123611745565b606061064461168a6109ee611745565b600401611e94565b61169e60016002612cee565b60006116ab6109ee611745565b600201905060006116ba6126b8565b90506116c68282612282565b156116e4576040516328f3e0eb60e11b815260040160405180910390fd5b6116ee8282612d77565b6116f6611745565b600101546040516001600160a01b038316907fd30cd5d8ca68864f2e956b063eda9b0e91ca33e27b30e7d4cb121e0208e086f890600090a35050565b600061173c611745565b60010154905090565b600080604051602001611789906020808252601f908201527f696f2e73796e7468657469782e676f7665726e616e63652e436f756e63696c00604082015260600190565b60408051601f19818403018152919052805160209091012092915050565b60006109fc8260010154612603565b6000806117c242612cad565b83549091506001600160401b03600160c01b9091048116908216106117ea5750600392915050565b82546001600160401b03600160801b90910481169082161061180f5750600292915050565b82546001600160401b03600160401b9091048116908216106118345750600192915050565b50600092915050565b600061184d61062e610629611745565b9050816003811115611861576118616140ad565b816003811115611873576118736140ad565b1461189157604051632e20231560e21b815260040160405180910390fd5b5050565b60006109fc8260010154612d8a565b60006109fc826001015461219d565b60006109fc826001015460016118c9919061430b565b61219d565b815460ff166000036118eb578054825460ff191660ff9091161782555b8154610100900460ff16600003611916578054825461ff0019166101009182900460ff169091021782555b81546201000090046001600160401b0316600003611957578054825469ffffffffffffffff0000191662010000918290046001600160401b03169091021782555b8154600160501b90046001600160401b031660000361199b578054825467ffffffffffffffff60501b1916600160501b918290046001600160401b03169091021782555b8154600160901b90046001600160401b03166000036119df578054825467ffffffffffffffff60901b1916600160901b918290046001600160401b03169091021782555b60018201546001600160401b0316600003611891576001908101549101805467ffffffffffffffff19166001600160401b03909216919091179055565b604080516080810182526000808252602082018190529181018290526060810182905290611a4942612cad565b8354909150600090611a6a906201000090046001600160401b031683614127565b8454909150600090611a8c90600160901b90046001600160401b03168361431e565b8554909150600090611aae90600160501b90046001600160401b03168361431e565b604080516080810182526001600160401b039687168152918616602083015292851692810192909252509116606082015292915050565b816001600160401b0316816001600160401b031611611b315760405163f4137ffd60e01b8152600160048201526001600160401b03808316602483015283166044820152606401610aae565b826001600160401b0316826001600160401b031611611b7d5760405163f4137ffd60e01b8152600260048201526001600160401b03808416602483015284166044820152606401610aae565b836001600160401b0316836001600160401b031611611bc95760405163f4137ffd60e01b8152600360048201526001600160401b03808516602483015285166044820152606401610aae565b6000611bd5858361431e565b90506000611be3848461431e565b90506000611bf1868661431e565b90506000611bfe896118a4565b8054909150611c26906001600160401b03600160901b8204811691600160501b900416614127565b6001600160401b0316846001600160401b03161015611c9c5780546004908590611c69906001600160401b03600160901b8204811691600160501b900416614127565b60405163f4137ffd60e01b815260048101939093526001600160401b039182166024840152166044820152606401610aae565b80546001600160401b03600160501b90910481169083161015611cf757805460405163f4137ffd60e01b8152600560048201526001600160401b038085166024830152600160501b9092049091166044820152606401610aae565b80546001600160401b03600160901b90910481169084161015610ddb57805460405163f4137ffd60e01b8152600660048201526001600160401b038086166024830152600160901b9092049091166044820152606401610aae565b60008160010160008154611d659061433e565b918290555092915050565b6000806040516020016117899060208082526024908201527f696f2e73796e7468657469782e636f72652d6d6f64756c65732e43726f7373436040820152633430b4b760e11b606082015260800190565b6060600182016000611dd282611e94565b9050600081516001600160401b03811115611def57611def613e05565b604051908082528060200260200182016040528015611e18578160200160208202803683370190505b50905060005b8251811015611e8b576000611e4b848381518110611e3e57611e3e614357565b6020026020010151612cad565b905080838381518110611e6057611e60614357565b6001600160401b03909216602092830291909101909101525080611e838161433e565b915050611e1e565b50949350505050565b60606000611ea183612dd4565b9392505050565b83546000906001600160a01b0316815b8551811015612189576000868281518110611ed557611ed5614357565b6020026020010151905046816001600160401b031603611f6657600080306001600160a01b031688604051611f0a9190614391565b6000604051808303816000865af19150503d8060008114611f47576040519150601f19603f3d011682016040523d82523d6000602084013e611f4c565b606091505b509150915081611f5f5780518060208301fd5b5050612176565b6040805160a0810182523060c0808301919091528251808303909101815260e08201835281526020808201899052825160008082529181018452909282019083611fd2565b6040805180820190915260008082526020820152815260200190600190039081611fab5790505b508152600060208083018290526040805180820182528b815282019283528051602481018c905292511515604480850191909152815180850390910181526064909301815290820180516001600160e01b03166397a657c960e01b179052909101526001600160401b03808416600090815260038c0160205260408082205490516320487ded60e01b8152939450909116916001600160a01b038716906320487ded9061208590859087906004016143d9565b602060405180830381865afa1580156120a2573d6000803e3d6000fd5b505050506040513d601f19601f820116820180604052508101906120c691906144b2565b9050804710156120f2576040516320d0c54d60e21b815260048101829052476024820152604401610aae565b6040516396f4e9f960e01b81526001600160a01b038716906396f4e9f990839061212290869088906004016143d9565b60206040518083038185885af1158015612140573d6000803e3d6000fd5b50505050506040513d601f19601f8201168201806040525081019061216591906144b2565b50612170818861430b565b96505050505b50806121818161433e565b915050611eb8565b5061219382612e30565b5050949350505050565b6040805160208101829052602860608201527f696f2e73796e7468657469782e676f7665726e616e63652e456c656374696f6e60808201526753657474696e677360c01b60a0820152908101829052600090819060c0015b60408051601f1981840301815291905280516020909101209392505050565b600061221e611745565b9050600061222b82611895565b90506000612238836118a4565b905083600003612248576101f493505b6000612255836006015490565b60018401549091506000612269878361430b565b9050828111156122765750815b6109d385858484612eb2565b6001600160a01b03811660009081526001830160205260408120541515611ea1565b306122ad6126b8565b6001600160a01b0316146122e8576122c36126b8565b60405163472511eb60e11b81526001600160a01b039091166004820152602401610aae565b565b80600081900361230d57604051633941064160e21b815260040160405180910390fd5b600061231a6109ee611745565b600201905060005b828110156109d657600085858381811061233e5761233e614357565b90506020020160208101906123539190613aad565b905061235f8382612282565b61237c57604051639ceae3db60e01b815260040160405180910390fd5b6123876001856144cb565b82101561242357600061239b83600161430b565b90505b848110156124215760008787838181106123ba576123ba614357565b90506020020160208101906123cf9190613aad565b9050806001600160a01b0316836001600160a01b03160361240e5760405163ba156e7b60e01b81526001600160a01b0384166004820152602401610aae565b50806124198161433e565b91505061239e565b505b508061242e8161433e565b915050612322565b6040805160806020808301829052601e60a08401527f696f2e73796e7468657469782e676f7665726e616e63652e42616c6c6f74000060c080850191909152838501979097526001600160a01b039590951660608301528101929092528051808303909401845260e09091019052815191012090565b6124b581612efe565b6124d257604051637611594360e01b815260040160405180910390fd5b50565b6000818152600183016020526040902054156125045760405163682ad32d60e01b815260040160405180910390fd5b81546001818101845560008481526020808220909301849055845493815293019052604090912055565b600061161d611745565b6000612542611745565b600181018054908a9055909150600061255a8a612603565b9050612569818a8a8a8a61264e565b61257282612fac565b610f958585808060200260200160405190810160405280939291908181526020018383602002808284376000920191909152508e9250612ff9915050565b6000806040516020016117899060208082526026908201527f696f2e73796e7468657469782e676f7665726e616e63652e436f756e63696c4d604082015265656d6265727360d01b606082015260800190565b6040805160208101829052601d60608201527f696f2e73796e7468657469782e676f7665726e616e63652e45706f63680000006080820152908101829052600090819060a0016121f5565b84546001600160401b039485166fffffffffffffffffffffffffffffffff1990911617600160401b93851693909302929092176fffffffffffffffffffffffffffffffff16600160801b918416919091026001600160c01b031617600160c01b9190921602179055565b600073ae788aaf52780741e12bf79ad684b91bb0ef4d92331480156126de575060143610155b156126f0575060131936013560601c90565b503390565b6000611ea161271b612708846001614127565b60018601906001600160401b031661306a565b612cad565b60408051600180825281830190925260009182919060208083019080368337019050509050848160008151811061275957612759614357565b60200260200101906001600160401b031690816001600160401b03168152505061278586828686611ea8565b9695505050505050565b815160008190036127b35760405163521299a960e01b815260040160405180910390fd5b60005b818110156127f3576127e18482815181106127d3576127d3614357565b60200260200101518461307c565b806127eb8161433e565b9150506127b6565b50505050565b612801613183565b6001600160a01b0316336001600160a01b0316146122e85760405163472511eb60e11b8152336004820152602401610aae565b865460ff87811661ffff1990921691909117610100918716919091021771ffffffffffffffffffffffffffffffff00001916620100006001600160401b038681169190910267ffffffffffffffff60501b191691909117600160501b858316021767ffffffffffffffff60901b1916600160901b8483160217885560018801805467ffffffffffffffff19169183169190911790556128d28761318d565b865460018801546040805160ff808516825261010085041660208201526001600160401b03620100008504811692820192909252600160501b840482166060820152600160901b909304811660808401521660a08201527f305a7d62fbe09738c7ca033adf1a2c319e92a17f32b54b711dd3e865795f239a9060c00160405180910390a150505050505050565b600061296a856118a4565b905061297681856118ce565b600061298142612cad565b85549091506000906129a2906201000090046001600160401b031683614127565b86549091506000906129c490600160901b90046001600160401b03168361431e565b9050846001600160401b03166000036129f65786546129f390600160501b90046001600160401b03168261431e565b94505b6000612a01896117a7565b9050612a118982868986886132b0565b612a1c876000612ff9565b885460ff191660011789556040517fedd2375ae1196fe91e924096f373e5d416893b6da334911ea52c9dd02ec2a0cb90600090a16040516000907f968139de8ea4f6dca3f75fdde04ee69529bde77210bb1cc0b58e954fd3d9b619908290a2505050505050505050565b6000612a91846118a4565b60018101546060840151825486549394506001600160401b0392831693612aca93612ac59262010000900481169116614127565b6132ca565b6001600160401b03161180612b0f57506001810154602083015184546001600160401b0392831692612b049291600160401b9004166132ca565b6001600160401b0316115b80612b4a57506001810154604083015184546001600160401b0392831692612b3f9291600160801b9004166132ca565b6001600160401b0316115b15612b795760405163f4137ffd60e01b8152600760048201526000602482018190526044820152606401610aae565b8254602083015160408401516060850151612ba39388936001600160401b03909116929091611ae5565b6000612bae836132fe565b6003811115612bbf57612bbf6140ad565b146127f357604051636af1cb2160e01b815260040160405180910390fd5b60006109fc825490565b6000612bf2826117a7565b90506000612bff836118a4565b90506000612c0c42612cad565b8254909150600090612c2e90600160501b90046001600160401b031683614127565b8354909150600090612c5090600160901b90046001600160401b031683614127565b855490915061113390879087906001600160401b03168686866132b0565b612c7b600183018261337e565b61189157612c8881612cad565b60405163900d29db60e01b81526001600160401b039091166004820152602401610aae565b60006001600160401b03821115612cd7576040516372b1c34f60e01b815260040160405180910390fd5b5090565b611891826001600160a01b038316613396565b6000612cfe61062e610629611745565b9050826003811115612d1257612d126140ad565b816003811115612d2457612d246140ad565b14158015612d545750816003811115612d3f57612d3f6140ad565b816003811115612d5157612d516140ad565b14155b15612d7257604051632e20231560e21b815260040160405180910390fd5b505050565b611891826001600160a01b0383166124d5565b60408051602080820183905260608201527f696f2e73796e7468657469782e676f7665726e616e63652e456c656374696f6e6080820152908101829052600090819060a0016121f5565b606081600001805480602002602001604051908101604052809291908181526020018280548015612e2457602002820191906000526020600020905b815481526020019060010190808311612e10575b50505050509050919050565b6000612e3c82346144cb565b9050600080612e496126b8565b6001600160a01b03168360405160006040518083038185875af1925050503d8060008114612e93576040519150601f19603f3d011682016040523d82523d6000602084013e612e98565b606091505b509150915081612eab5780518060208301fd5b5050919050565b825460ff16825b82811015611133576000612edb612ed183600161430b565b6006890190613495565b905080612ee98882866134fa565b50508080612ef69061433e565b915050612eb9565b6002810154600182015460009114612f1857506000919050565b6000805b6001840154811015612f9857836002018181548110612f3d57612f3d614357565b9060005260206000200154600003612f59575060009392505050565b836002018181548110612f6e57612f6e614357565b906000526020600020015482612f84919061430b565b915080612f908161433e565b915050612f1c565b50801580611ea15750825481149392505050565b6000612fb66125b0565b60010190506000612fc682612bdd565b905060005b818110156127f357612fe7612fe184600161306a565b8561307c565b80612ff18161433e565b915050612fcb565b8151600081900361301d5760405163521299a960e01b815260040160405180910390fd5b60006130276125b0565b905060005b828110156109d6576130588286838151811061304a5761304a614357565b6020026020010151866135db565b806130628161433e565b91505061302c565b6000611ea16130798484613495565b90565b60006130866125b0565b9050600181016130968185612282565b6130b35760405163051b79b960e31b815260040160405180910390fd5b6130bd8185612cdb565b6001600160a01b0384166130e76130e26b31b7bab731b4b62a37b5b2b760a11b6136d7565b613735565b6001600160a01b03166342966c68826040518263ffffffff1660e01b815260040161311491815260200190565b600060405180830381600087803b15801561312e57600080fd5b505af1158015613142573d6000803e3d6000fd5b50506040518692506001600160a01b03881691507f208c29b08f363039c7c656b8f572656a2489f862113410d36201aa340657f1b490600090a35050505050565b6000611487613758565b805460ff1615806131a557508054610100900460ff16155b806131bb5750805460ff80821661010090920416115b806131d4575080546201000090046001600160401b0316155b806131ee57508054600160501b90046001600160401b0316155b8061320857508054600160901b90046001600160401b0316155b8061322b5750613217816137a8565b8154600160501b90046001600160401b0316105b8061324e575061323a816137a8565b8154600160901b90046001600160401b0316105b8061329257508054613279906001600160401b03600160901b8204811691600160501b900416614127565b81546001600160401b0391821662010000909104909116105b156124d257604051630a21d9ed60e31b815260040160405180910390fd5b6132bd8685858585611ae5565b611133858585858561264e565b6000816001600160401b0316836001600160401b0316116132f4576132ef838361431e565b611ea1565b611ea1828461431e565b60008061330a42612cad565b905082606001516001600160401b0316816001600160401b0316106133325750600392915050565b82604001516001600160401b0316816001600160401b0316106133585750600292915050565b82602001516001600160401b0316816001600160401b0316106118345750600192915050565b60008181526001830160205260408120541515611ea1565b6000818152600183016020526040812054908190036133c85760405163b3dbc29360e01b815260040160405180910390fd5b60006133d56001836144cb565b84549091506000906133e9906001906144cb565b905080821461344e57600085600001828154811061340957613409614357565b906000526020600020015490508086600001848154811061342c5761342c614357565b6000918252602080832090910192909255918252600187019052604090208390555b845485908061345f5761345f6144de565b60019003818190600052602060002001600090559055846001016000858152602001908152602001600020600090555050505050565b60008115806134a45750825482115b156134c25760405163eb9bc44760e01b815260040160405180910390fd5b60006134cf6001846144cb565b90508360000181815481106134e6576134e6614357565b906000526020600020015491505092915050565b600182015460005b818110156135ba57600084600101828154811061352157613521614357565b60009182526020808320909101546001600160a01b03168083526008890190915260408220546002880180549294509092918590811061356357613563614357565b906000526020600020015482613579919061430b565b6001600160a01b038416600090815260088a016020526040902081905590506135a4888483896137d5565b50505080806135b29061433e565b915050613502565b5060018460010160008282546135d0919061430b565b909155505050505050565b600183016135e98184612282565b15613607576040516348ac2ca160e11b815260040160405180910390fd5b6136118184612d77565b6001600160a01b0383166136366130e26b31b7bab731b4b62a37b5b2b760a11b6136d7565b6040516340c10f1960e01b81526001600160a01b0386811660048301526024820184905291909116906340c10f1990604401600060405180830381600087803b15801561368257600080fd5b505af1158015613696573d6000803e3d6000fd5b50506040518592506001600160a01b03871691507fe5b0ed13a85f5d5ab0d550273eaa6af99d84021d0ed22940dcc8835afc4243e890600090a35050505050565b6040805160208101829052602a60608201527f696f2e73796e7468657469782e636f72652d6d6f64756c65732e4173736f63696080820152696174656453797374656d60b01b60a0820152908101829052600090819060c0016121f5565b600061374a826565726337323160d01b613832565b50546001600160a01b031690565b6000806040516020016117899060208082526023908201527f696f2e73796e7468657469782e636f72652d636f6e7472616374732e4f776e61604082015262626c6560e81b606082015260800190565b60018101546000906137c6906001600160401b031662015180614127565b6001600160401b031692915050565b600484016137e38185612282565b156137ee57506127f3565b816137f882612bdd565b101561380e576138088185612d77565b506127f3565b60008061381b878461387a565b91509150808511156109d3576109d38383886138f3565b60028201548181148015906138535750681d5b9b585b9859d95960ba1b8114155b15612d725760405162d5319f60e31b81526004810183905260248101829052604401610aae565b60006000198161388984612bdd565b905060015b818160ff16116138e95760006138a78660ff841661306a565b6001600160a01b0381166000908152600889016020526040902054909150848110156138d4578094508195505b505080806138e1906144f4565b91505061388e565b50505b9250929050565b612d72836001600160a01b0384166001600160a01b03841660008281526001840160205260409020546139395760405163b3dbc29360e01b815260040160405180910390fd5b6000818152600184016020526040902054156139685760405163682ad32d60e01b815260040160405180910390fd5b6000828152600180850160205260408220805490839055919061398b90836144cb565b9050828560000182815481106139a3576139a3614357565b600091825260208083209091019290925593845260019095019094526040909120555050565b828054828255906000526020600020908101928215613a1c579160200282015b82811115613a1c5781546001600160a01b0319166001600160a01b038435161782556020909201916001909101906139e9565b50612cd7929150613a63565b828054828255906000526020600020908101928215613a1c579160200282015b82811115613a1c578235825591602001919060010190613a48565b5b80821115612cd75760008155600101613a64565b600060208284031215613a8a57600080fd5b5035919050565b80356001600160a01b0381168114613aa857600080fd5b919050565b600060208284031215613abf57600080fd5b611ea182613a91565b60008083601f840112613ada57600080fd5b5081356001600160401b03811115613af157600080fd5b6020830191508360208260051b85010111156138ec57600080fd5b60008060008060008060008060c0898b031215613b2857600080fd5b88359750613b3860208a01613a91565b9650604089013595506060890135945060808901356001600160401b0380821115613b6257600080fd5b613b6e8c838d01613ac8565b909650945060a08b0135915080821115613b8757600080fd5b50613b948b828c01613ac8565b999c989b5096995094979396929594505050565b60008060408385031215613bbb57600080fd5b613bc483613a91565b946020939093013593505050565b80356001600160401b0381168114613aa857600080fd5b600080600080600080600060c0888a031215613c0457600080fd5b87359650613c1460208901613bd2565b9550613c2260408901613bd2565b9450613c3060608901613bd2565b9350613c3e60808901613bd2565b925060a08801356001600160401b03811115613c5957600080fd5b613c658a828b01613ac8565b989b979a50959850939692959293505050565b600081518084526020808501945080840160005b83811015613cb15781516001600160a01b031687529582019590820190600101613c8c565b509495945050505050565b602081526000611ea16020830184613c78565b60008060008060808587031215613ce557600080fd5b84359350613cf560208601613bd2565b9250613d0360408601613bd2565b9150613d1160608601613bd2565b905092959194509250565b60008060008060408587031215613d3257600080fd5b84356001600160401b0380821115613d4957600080fd5b613d5588838901613ac8565b90965094506020870135915080821115613d6e57600080fd5b50613d7b87828801613ac8565b95989497509550505050565b600080600060408486031215613d9c57600080fd5b83356001600160401b03811115613db257600080fd5b613dbe86828701613ac8565b909790965060209590950135949350505050565b600080600060608486031215613de757600080fd5b613df084613a91565b95602085013595506040909401359392505050565b634e487b7160e01b600052604160045260246000fd5b803560ff81168114613aa857600080fd5b60008060008060008060c08789031215613e4557600080fd5b86356001600160401b0380821115613e5c57600080fd5b818901915089601f830112613e7057600080fd5b8135602082821115613e8457613e84613e05565b8160051b604051601f19603f83011681018181108682111715613ea957613ea9613e05565b60405292835281830193508481018201928d841115613ec757600080fd5b948201945b83861015613eec57613edd86613a91565b85529482019493820193613ecc565b9a50613efb90508b8201613e1b565b985050505050613f0d60408801613bd2565b9350613f1b60608801613bd2565b9250613f2960808801613bd2565b9150613f3760a08801613bd2565b90509295509295509295565b600080600060608486031215613f5857600080fd5b613f6184613bd2565b9250613f6f60208501613bd2565b9150613f7d60408501613bd2565b90509250925092565b60008060008060008060c08789031215613f9f57600080fd5b613fa887613e1b565b9550613fb660208801613e1b565b9450613f0d60408801613bd2565b60008060208385031215613fd757600080fd5b82356001600160401b03811115613fed57600080fd5b613ff985828601613ac8565b90969095509350505050565b6020808252825182820152828101516060604084015280516080840181905260009291820190839060a08601905b8083101561405c5783516001600160a01b03168252928401926001929092019190840190614033565b506040870151868203601f190160608801528051808352908501935090840191506000905b808210156140a15783518352928401929184019160019190910190614081565b50909695505050505050565b634e487b7160e01b600052602160045260246000fd5b86815260006001600160401b0380881660208401528087166040840152808616606084015280851660808401525060c060a083015261410560c0830184613c78565b98975050505050505050565b634e487b7160e01b600052601160045260246000fd5b6001600160401b0381811683821601908082111561414757614147614111565b5092915050565b60408152600061417860408301600a81526963616e6469646174657360b01b602082015260400190565b8281036020938401526013815272746f6f206d616e792063616e6469646174657360681b928101929092525060400190565b6040815260006141d460408301600a81526963616e6469646174657360b01b602082015260400190565b828103602093840152601981527f6c656e677468206d757374206d6174636820616d6f756e747300000000000000928101929092525060400190565b8183526000602080850194508260005b85811015613cb1576001600160a01b0361423983613a91565b1687529582019590820190600101614220565b88815260018060a01b038816602082015286604082015285606082015260c06080820152600061428060c083018688614210565b82810360a08401528381526001600160fb1b0384111561429f57600080fd5b8360051b80866020840137016020019a9950505050505050505050565b6040815260006142d0604083018587614210565b9050826020830152949350505050565b6001600160401b0381811683821602808216919082811461430357614303614111565b505092915050565b808201808211156109fc576109fc614111565b6001600160401b0382811682821603908082111561414757614147614111565b60006001820161435057614350614111565b5060010190565b634e487b7160e01b600052603260045260246000fd5b60005b83811015614388578181015183820152602001614370565b50506000910152565b600082516143a381846020870161436d565b9190910192915050565b600081518084526143c581602086016020860161436d565b601f01601f19169290920160200192915050565b600060406001600160401b038516835260208181850152845160a08386015261440560e08601826143ad565b905081860151603f198087840301606088015261442283836143ad565b88860151888203830160808a01528051808352908601945060009350908501905b8084101561447557845180516001600160a01b0316835286015186830152938501936001939093019290860190614443565b5060608901516001600160a01b031660a08901526080890151888203830160c08a015295506144a481876143ad565b9a9950505050505050505050565b6000602082840312156144c457600080fd5b5051919050565b818103818111156109fc576109fc614111565b634e487b7160e01b600052603160045260246000fd5b600060ff821660ff810361450a5761450a614111565b6001019291505056fea26469706673582212201760c6d062ed8321f789d576a2feae0f26c42d5646d75e8aed799f3cf2294a9e64736f6c63430008110033",
  "linkReferences": {},
  "deployedLinkReferences": {}
}